{
  "contractName": "AssetTracker",
  "abi": [
    {
      "anonymous": false,
      "inputs": [
        {
          "indexed": false,
          "internalType": "address",
          "name": "account",
          "type": "address"
        },
        {
          "indexed": false,
          "internalType": "int256",
          "name": "assetID",
          "type": "int256"
        },
        {
          "indexed": false,
          "internalType": "string",
          "name": "customer",
          "type": "string"
        }
      ],
      "name": "AssetCreate",
      "type": "event"
    },
    {
      "anonymous": false,
      "inputs": [
        {
          "indexed": false,
          "internalType": "address",
          "name": "from",
          "type": "address"
        },
        {
          "indexed": false,
          "internalType": "address",
          "name": "to",
          "type": "address"
        },
        {
          "indexed": false,
          "internalType": "int256",
          "name": "assetID",
          "type": "int256"
        }
      ],
      "name": "AssetTransfer",
      "type": "event"
    },
    {
      "inputs": [],
      "name": "assetId",
      "outputs": [
        {
          "internalType": "int256",
          "name": "",
          "type": "int256"
        }
      ],
      "stateMutability": "view",
      "type": "function",
      "constant": true
    },
    {
      "inputs": [
        {
          "internalType": "int256",
          "name": "",
          "type": "int256"
        }
      ],
      "name": "assets",
      "outputs": [
        {
          "internalType": "contract Asset",
          "name": "",
          "type": "address"
        }
      ],
      "stateMutability": "view",
      "type": "function",
      "constant": true
    },
    {
      "inputs": [
        {
          "internalType": "address",
          "name": "",
          "type": "address"
        }
      ],
      "name": "customers",
      "outputs": [
        {
          "internalType": "contract Customer",
          "name": "",
          "type": "address"
        }
      ],
      "stateMutability": "view",
      "type": "function",
      "constant": true
    },
    {
      "inputs": [
        {
          "internalType": "address",
          "name": "",
          "type": "address"
        }
      ],
      "name": "vendors",
      "outputs": [
        {
          "internalType": "contract Vendor",
          "name": "",
          "type": "address"
        }
      ],
      "stateMutability": "view",
      "type": "function",
      "constant": true
    },
    {
      "inputs": [
        {
          "internalType": "address",
          "name": "",
          "type": "address"
        }
      ],
      "name": "warehouses",
      "outputs": [
        {
          "internalType": "contract Warehouse",
          "name": "",
          "type": "address"
        }
      ],
      "stateMutability": "view",
      "type": "function",
      "constant": true
    },
    {
      "inputs": [
        {
          "internalType": "string",
          "name": "name",
          "type": "string"
        },
        {
          "internalType": "address",
          "name": "cAddress",
          "type": "address"
        }
      ],
      "name": "createCustomer",
      "outputs": [],
      "stateMutability": "nonpayable",
      "type": "function"
    },
    {
      "inputs": [
        {
          "internalType": "string",
          "name": "name",
          "type": "string"
        },
        {
          "internalType": "address",
          "name": "vAddress",
          "type": "address"
        }
      ],
      "name": "createVendor",
      "outputs": [],
      "stateMutability": "nonpayable",
      "type": "function"
    },
    {
      "inputs": [
        {
          "internalType": "string",
          "name": "name",
          "type": "string"
        },
        {
          "internalType": "address",
          "name": "wAddress",
          "type": "address"
        }
      ],
      "name": "createWarehouse",
      "outputs": [],
      "stateMutability": "nonpayable",
      "type": "function"
    },
    {
      "inputs": [
        {
          "internalType": "string",
          "name": "assetName",
          "type": "string"
        }
      ],
      "name": "createAsset",
      "outputs": [
        {
          "internalType": "int256",
          "name": "",
          "type": "int256"
        }
      ],
      "stateMutability": "nonpayable",
      "type": "function"
    },
    {
      "inputs": [
        {
          "internalType": "int256",
          "name": "assetID",
          "type": "int256"
        }
      ],
      "name": "getCurrentOwner",
      "outputs": [
        {
          "internalType": "address",
          "name": "",
          "type": "address"
        }
      ],
      "stateMutability": "view",
      "type": "function",
      "constant": true
    },
    {
      "inputs": [
        {
          "internalType": "address",
          "name": "adr",
          "type": "address"
        }
      ],
      "name": "getManufacturerAdress",
      "outputs": [
        {
          "internalType": "address",
          "name": "",
          "type": "address"
        }
      ],
      "stateMutability": "view",
      "type": "function",
      "constant": true
    },
    {
      "inputs": [
        {
          "internalType": "int256",
          "name": "assetID",
          "type": "int256"
        }
      ],
      "name": "getCurrentState",
      "outputs": [
        {
          "internalType": "enum Asset.StateType",
          "name": "",
          "type": "uint8"
        }
      ],
      "stateMutability": "view",
      "type": "function",
      "constant": true
    },
    {
      "inputs": [
        {
          "internalType": "int256",
          "name": "assetID",
          "type": "int256"
        },
        {
          "internalType": "string",
          "name": "assetLocation",
          "type": "string"
        }
      ],
      "name": "setAssetCurrentLocation",
      "outputs": [],
      "stateMutability": "nonpayable",
      "type": "function"
    },
    {
      "inputs": [
        {
          "internalType": "address",
          "name": "to",
          "type": "address"
        },
        {
          "internalType": "int256",
          "name": "assetID",
          "type": "int256"
        }
      ],
      "name": "transferAsset",
      "outputs": [],
      "stateMutability": "nonpayable",
      "type": "function"
    }
  ],
  "bytecode": "0x608060405234801561001057600080fd5b50614259806100206000396000f3fe60806040523480156200001157600080fd5b5060043610620001005760003560e01c80638485707d1162000099578063b51eea62116200006f578063b51eea6214620002e1578063e57ecf0c1462000301578063e8339ed51462000321578063ff489e6b14620003575762000100565b80638485707d14620002555780638805bdf7146200028b5780638d6efb7314620002c15762000100565b8063336989ae11620000db578063336989ae146200019157806344de240a14620001c757806355b1f24e14620001e95780636ccc244d146200021f5762000100565b806326f5fad0146200010557806327e30c36146200013b5780632fa2d0451462000171575b600080fd5b6200012360048036038101906200011d919062001542565b62000377565b604051620001329190620015ff565b60405180910390f35b62000159600480360381019062000153919062001661565b620003aa565b604051620001689190620016b8565b60405180910390f35b6200018f600480360381019062000189919062001837565b620003dd565b005b620001af6004803603810190620001a9919062001661565b6200049e565b604051620001be9190620018c2565b60405180910390f35b620001d1620004d1565b604051620001e09190620018f0565b60405180910390f35b6200020760048036038101906200020191906200190d565b620004d7565b604051620002169190620018f0565b60405180910390f35b6200023d600480360381019062000237919062001661565b620007e7565b6040516200024c91906200196f565b60405180910390f35b6200027360048036038101906200026d919062001542565b620008c6565b6040516200028291906200196f565b60405180910390f35b620002a96004803603810190620002a3919062001661565b62000979565b604051620002b89190620019b1565b60405180910390f35b620002df6004803603810190620002d9919062001837565b620009ac565b005b620002ff6004803603810190620002f9919062001837565b62000a6e565b005b6200031f6004803603810190620003199190620019ce565b62000b30565b005b6200033f600480360381019062000339919062001542565b6200135c565b6040516200034e919062001a95565b60405180910390f35b6200037560048036038101906200036f919062001ab2565b6200140f565b005b60036020528060005260406000206000915054906101000a900473ffffffffffffffffffffffffffffffffffffffff1681565b60026020528060005260406000206000915054906101000a900473ffffffffffffffffffffffffffffffffffffffff1681565b60008282604051620003ef90620014bb565b620003fc92919062001bab565b604051809103906000f08015801562000419573d6000803e3d6000fd5b509050806000808473ffffffffffffffffffffffffffffffffffffffff1673ffffffffffffffffffffffffffffffffffffffff16815260200190815260200160002060006101000a81548173ffffffffffffffffffffffffffffffffffffffff021916908373ffffffffffffffffffffffffffffffffffffffff160217905550505050565b60016020528060005260406000206000915054906101000a900473ffffffffffffffffffffffffffffffffffffffff1681565b60045481565b6000600160003373ffffffffffffffffffffffffffffffffffffffff1673ffffffffffffffffffffffffffffffffffffffff16815260200190815260200160002060009054906101000a900473ffffffffffffffffffffffffffffffffffffffff1673ffffffffffffffffffffffffffffffffffffffff16633aeaccf56040518163ffffffff1660e01b8152600401602060405180830381865afa15801562000584573d6000803e3d6000fd5b505050506040513d601f19601f82011682018060405250810190620005aa919062001bf6565b73ffffffffffffffffffffffffffffffffffffffff163373ffffffffffffffffffffffffffffffffffffffff16146200061a576040517f08c379a0000000000000000000000000000000000000000000000000000000008152600401620006119062001c9e565b60405180910390fd5b60016004546200062b919062001cef565b600481905550600060045483336040516200064690620014c9565b620006549392919062001d8d565b604051809103906000f08015801562000671573d6000803e3d6000fd5b5090508060036000600454815260200190815260200160002060006101000a81548173ffffffffffffffffffffffffffffffffffffffff021916908373ffffffffffffffffffffffffffffffffffffffff1602179055507f5650d9b11661472f80366cefe4cb8b30ea441f233ba000ed7b9c443b06ea151433600454600160003373ffffffffffffffffffffffffffffffffffffffff1673ffffffffffffffffffffffffffffffffffffffff16815260200190815260200160002060009054906101000a900473ffffffffffffffffffffffffffffffffffffffff1673ffffffffffffffffffffffffffffffffffffffff16638052474d6040518163ffffffff1660e01b8152600401600060405180830381865afa15801562000798573d6000803e3d6000fd5b505050506040513d6000823e3d601f19601f82011682018060405250810190620007c3919062001e4f565b604051620007d49392919062001ea0565b60405180910390a1600454915050919050565b600080600160008473ffffffffffffffffffffffffffffffffffffffff1673ffffffffffffffffffffffffffffffffffffffff16815260200190815260200160002060009054906101000a900473ffffffffffffffffffffffffffffffffffffffff1690508073ffffffffffffffffffffffffffffffffffffffff16633aeaccf56040518163ffffffff1660e01b8152600401602060405180830381865afa15801562000898573d6000803e3d6000fd5b505050506040513d601f19601f82011682018060405250810190620008be919062001bf6565b915050919050565b6000806003600084815260200190815260200160002060009054906101000a900473ffffffffffffffffffffffffffffffffffffffff1690508073ffffffffffffffffffffffffffffffffffffffff1663b4a99a4e6040518163ffffffff1660e01b8152600401602060405180830381865afa1580156200094b573d6000803e3d6000fd5b505050506040513d601f19601f8201168201806040525081019062000971919062001bf6565b915050919050565b60006020528060005260406000206000915054906101000a900473ffffffffffffffffffffffffffffffffffffffff1681565b60008282604051620009be90620014d7565b620009cb92919062001bab565b604051809103906000f080158015620009e8573d6000803e3d6000fd5b50905080600260008473ffffffffffffffffffffffffffffffffffffffff1673ffffffffffffffffffffffffffffffffffffffff16815260200190815260200160002060006101000a81548173ffffffffffffffffffffffffffffffffffffffff021916908373ffffffffffffffffffffffffffffffffffffffff160217905550505050565b6000828260405162000a8090620014e5565b62000a8d92919062001bab565b604051809103906000f08015801562000aaa573d6000803e3d6000fd5b50905080600160008473ffffffffffffffffffffffffffffffffffffffff1673ffffffffffffffffffffffffffffffffffffffff16815260200190815260200160002060006101000a81548173ffffffffffffffffffffffffffffffffffffffff021916908373ffffffffffffffffffffffffffffffffffffffff160217905550505050565b60006003600083815260200190815260200160002060009054906101000a900473ffffffffffffffffffffffffffffffffffffffff1690506001600781111562000b7f5762000b7e62001a15565b5b8173ffffffffffffffffffffffffffffffffffffffff1663f1b6dccd6040518163ffffffff1660e01b8152600401602060405180830381865afa15801562000bcb573d6000803e3d6000fd5b505050506040513d601f19601f8201168201806040525081019062000bf1919062001f0c565b600781111562000c065762000c0562001a15565b5b14801562000d0f5750600260008473ffffffffffffffffffffffffffffffffffffffff1673ffffffffffffffffffffffffffffffffffffffff16815260200190815260200160002060009054906101000a900473ffffffffffffffffffffffffffffffffffffffff1673ffffffffffffffffffffffffffffffffffffffff16633aeaccf56040518163ffffffff1660e01b8152600401602060405180830381865afa15801562000cba573d6000803e3d6000fd5b505050506040513d601f19601f8201168201806040525081019062000ce0919062001bf6565b73ffffffffffffffffffffffffffffffffffffffff168373ffffffffffffffffffffffffffffffffffffffff16145b1562000dfa578073ffffffffffffffffffffffffffffffffffffffff166313af4035846040518263ffffffff1660e01b815260040162000d5091906200196f565b600060405180830381600087803b15801562000d6b57600080fd5b505af115801562000d80573d6000803e3d6000fd5b505050508073ffffffffffffffffffffffffffffffffffffffff166356de96db60036040518263ffffffff1660e01b815260040162000dc0919062001a95565b600060405180830381600087803b15801562000ddb57600080fd5b505af115801562000df0573d6000803e3d6000fd5b505050506200131a565b6003600781111562000e115762000e1062001a15565b5b8173ffffffffffffffffffffffffffffffffffffffff1663f1b6dccd6040518163ffffffff1660e01b8152600401602060405180830381865afa15801562000e5d573d6000803e3d6000fd5b505050506040513d601f19601f8201168201806040525081019062000e83919062001f0c565b600781111562000e985762000e9762001a15565b5b14801562000fa057506000808473ffffffffffffffffffffffffffffffffffffffff1673ffffffffffffffffffffffffffffffffffffffff16815260200190815260200160002060009054906101000a900473ffffffffffffffffffffffffffffffffffffffff1673ffffffffffffffffffffffffffffffffffffffff16633aeaccf56040518163ffffffff1660e01b8152600401602060405180830381865afa15801562000f4b573d6000803e3d6000fd5b505050506040513d601f19601f8201168201806040525081019062000f71919062001bf6565b73ffffffffffffffffffffffffffffffffffffffff168373ffffffffffffffffffffffffffffffffffffffff16145b156200108b578073ffffffffffffffffffffffffffffffffffffffff166313af4035846040518263ffffffff1660e01b815260040162000fe191906200196f565b600060405180830381600087803b15801562000ffc57600080fd5b505af115801562001011573d6000803e3d6000fd5b505050508073ffffffffffffffffffffffffffffffffffffffff166356de96db60046040518263ffffffff1660e01b815260040162001051919062001a95565b600060405180830381600087803b1580156200106c57600080fd5b505af115801562001081573d6000803e3d6000fd5b5050505062001319565b60046007811115620010a257620010a162001a15565b5b8173ffffffffffffffffffffffffffffffffffffffff1663f1b6dccd6040518163ffffffff1660e01b8152600401602060405180830381865afa158015620010ee573d6000803e3d6000fd5b505050506040513d601f19601f8201168201806040525081019062001114919062001f0c565b600781111562001129576200112862001a15565b5b148015620012325750600160008473ffffffffffffffffffffffffffffffffffffffff1673ffffffffffffffffffffffffffffffffffffffff16815260200190815260200160002060009054906101000a900473ffffffffffffffffffffffffffffffffffffffff1673ffffffffffffffffffffffffffffffffffffffff16633aeaccf56040518163ffffffff1660e01b8152600401602060405180830381865afa158015620011dd573d6000803e3d6000fd5b505050506040513d601f19601f8201168201806040525081019062001203919062001bf6565b73ffffffffffffffffffffffffffffffffffffffff168373ffffffffffffffffffffffffffffffffffffffff16145b1562001318578073ffffffffffffffffffffffffffffffffffffffff166313af4035846040518263ffffffff1660e01b81526004016200127391906200196f565b600060405180830381600087803b1580156200128e57600080fd5b505af1158015620012a3573d6000803e3d6000fd5b505050508073ffffffffffffffffffffffffffffffffffffffff166356de96db60056040518263ffffffff1660e01b8152600401620012e3919062001a95565b600060405180830381600087803b158015620012fe57600080fd5b505af115801562001313573d6000803e3d6000fd5b505050505b5b5b7fc59001f872a4500986afbe6a5a3ece4c5ffbfef1e04dce518ca8825fb3f905ad3384846040516200134f9392919062001f3e565b60405180910390a1505050565b6000806003600084815260200190815260200160002060009054906101000a900473ffffffffffffffffffffffffffffffffffffffff1690508073ffffffffffffffffffffffffffffffffffffffff1663f1b6dccd6040518163ffffffff1660e01b8152600401602060405180830381865afa158015620013e1573d6000803e3d6000fd5b505050506040513d601f19601f8201168201806040525081019062001407919062001f0c565b915050919050565b60006003600084815260200190815260200160002060009054906101000a900473ffffffffffffffffffffffffffffffffffffffff1690508073ffffffffffffffffffffffffffffffffffffffff16639b9ab33a836040518263ffffffff1660e01b815260040162001482919062001f7b565b600060405180830381600087803b1580156200149d57600080fd5b505af1158015620014b2573d6000803e3d6000fd5b50505050505050565b6106b58062001fa083390190565b610e65806200265583390190565b6106b580620034ba83390190565b6106b58062003b6f83390190565b6000604051905090565b600080fd5b600080fd5b6000819050919050565b6200151c8162001507565b81146200152857600080fd5b50565b6000813590506200153c8162001511565b92915050565b6000602082840312156200155b576200155a620014fd565b5b60006200156b848285016200152b565b91505092915050565b600073ffffffffffffffffffffffffffffffffffffffff82169050919050565b6000819050919050565b6000620015bf620015b9620015b38462001574565b62001594565b62001574565b9050919050565b6000620015d3826200159e565b9050919050565b6000620015e782620015c6565b9050919050565b620015f981620015da565b82525050565b6000602082019050620016166000830184620015ee565b92915050565b6000620016298262001574565b9050919050565b6200163b816200161c565b81146200164757600080fd5b50565b6000813590506200165b8162001630565b92915050565b6000602082840312156200167a5762001679620014fd565b5b60006200168a848285016200164a565b91505092915050565b6000620016a082620015c6565b9050919050565b620016b28162001693565b82525050565b6000602082019050620016cf6000830184620016a7565b92915050565b600080fd5b600080fd5b6000601f19601f8301169050919050565b7f4e487b7100000000000000000000000000000000000000000000000000000000600052604160045260246000fd5b6200172a82620016df565b810181811067ffffffffffffffff821117156200174c576200174b620016f0565b5b80604052505050565b600062001761620014f3565b90506200176f82826200171f565b919050565b600067ffffffffffffffff821115620017925762001791620016f0565b5b6200179d82620016df565b9050602081019050919050565b82818337600083830152505050565b6000620017d0620017ca8462001774565b62001755565b905082815260208101848484011115620017ef57620017ee620016da565b5b620017fc848285620017aa565b509392505050565b600082601f8301126200181c576200181b620016d5565b5b81356200182e848260208601620017b9565b91505092915050565b60008060408385031215620018515762001850620014fd565b5b600083013567ffffffffffffffff81111562001872576200187162001502565b5b620018808582860162001804565b925050602062001893858286016200164a565b9150509250929050565b6000620018aa82620015c6565b9050919050565b620018bc816200189d565b82525050565b6000602082019050620018d96000830184620018b1565b92915050565b620018ea8162001507565b82525050565b6000602082019050620019076000830184620018df565b92915050565b600060208284031215620019265762001925620014fd565b5b600082013567ffffffffffffffff81111562001947576200194662001502565b5b620019558482850162001804565b91505092915050565b62001969816200161c565b82525050565b60006020820190506200198660008301846200195e565b92915050565b60006200199982620015c6565b9050919050565b620019ab816200198c565b82525050565b6000602082019050620019c86000830184620019a0565b92915050565b60008060408385031215620019e857620019e7620014fd565b5b6000620019f8858286016200164a565b925050602062001a0b858286016200152b565b9150509250929050565b7f4e487b7100000000000000000000000000000000000000000000000000000000600052602160045260246000fd5b6008811062001a585762001a5762001a15565b5b50565b600081905062001a6b8262001a44565b919050565b600062001a7d8262001a5b565b9050919050565b62001a8f8162001a70565b82525050565b600060208201905062001aac600083018462001a84565b92915050565b6000806040838503121562001acc5762001acb620014fd565b5b600062001adc858286016200152b565b925050602083013567ffffffffffffffff81111562001b005762001aff62001502565b5b62001b0e8582860162001804565b9150509250929050565b600081519050919050565b600082825260208201905092915050565b60005b8381101562001b5457808201518184015260208101905062001b37565b8381111562001b64576000848401525b50505050565b600062001b778262001b18565b62001b83818562001b23565b935062001b9581856020860162001b34565b62001ba081620016df565b840191505092915050565b6000604082019050818103600083015262001bc7818562001b6a565b905062001bd860208301846200195e565b9392505050565b60008151905062001bf08162001630565b92915050565b60006020828403121562001c0f5762001c0e620014fd565b5b600062001c1f8482850162001bdf565b91505092915050565b7f4f6e6c79206120637573746f6d65722063616e2063726561746520616e20617360008201527f7365740000000000000000000000000000000000000000000000000000000000602082015250565b600062001c8660238362001b23565b915062001c938262001c28565b604082019050919050565b6000602082019050818103600083015262001cb98162001c77565b9050919050565b7f4e487b7100000000000000000000000000000000000000000000000000000000600052601160045260246000fd5b600062001cfc8262001507565b915062001d098362001507565b9250817f7fffffffffffffffffffffffffffffffffffffffffffffffffffffffffffffff0383136000831215161562001d475762001d4662001cc0565b5b817f800000000000000000000000000000000000000000000000000000000000000003831260008312161562001d825762001d8162001cc0565b5b828201905092915050565b600060608201905062001da46000830186620018df565b818103602083015262001db8818562001b6a565b905062001dc960408301846200195e565b949350505050565b600062001de862001de28462001774565b62001755565b90508281526020810184848401111562001e075762001e06620016da565b5b62001e1484828562001b34565b509392505050565b600082601f83011262001e345762001e33620016d5565b5b815162001e4684826020860162001dd1565b91505092915050565b60006020828403121562001e685762001e67620014fd565b5b600082015167ffffffffffffffff81111562001e895762001e8862001502565b5b62001e978482850162001e1c565b91505092915050565b600060608201905062001eb760008301866200195e565b62001ec66020830185620018df565b818103604083015262001eda818462001b6a565b9050949350505050565b6008811062001ef257600080fd5b50565b60008151905062001f068162001ee4565b92915050565b60006020828403121562001f255762001f24620014fd565b5b600062001f358482850162001ef5565b91505092915050565b600060608201905062001f5560008301866200195e565b62001f6460208301856200195e565b62001f736040830184620018df565b949350505050565b6000602082019050818103600083015262001f97818462001b6a565b90509291505056fe608060405234801561001057600080fd5b506040516106b53803806106b583398181016040528101906100329190610310565b8160009080519060200190610048929190610091565b5080600160006101000a81548173ffffffffffffffffffffffffffffffffffffffff021916908373ffffffffffffffffffffffffffffffffffffffff16021790555050506103cd565b82805461009d9061039b565b90600052602060002090601f0160209004810192826100bf5760008555610106565b82601f106100d857805160ff1916838001178555610106565b82800160010185558215610106579182015b828111156101055782518255916020019190600101906100ea565b5b5090506101139190610117565b5090565b5b80821115610130576000816000905550600101610118565b5090565b6000604051905090565b600080fd5b600080fd5b600080fd5b600080fd5b6000601f19601f8301169050919050565b7f4e487b7100000000000000000000000000000000000000000000000000000000600052604160045260246000fd5b61019b82610152565b810181811067ffffffffffffffff821117156101ba576101b9610163565b5b80604052505050565b60006101cd610134565b90506101d98282610192565b919050565b600067ffffffffffffffff8211156101f9576101f8610163565b5b61020282610152565b9050602081019050919050565b60005b8381101561022d578082015181840152602081019050610212565b8381111561023c576000848401525b50505050565b6000610255610250846101de565b6101c3565b9050828152602081018484840111156102715761027061014d565b5b61027c84828561020f565b509392505050565b600082601f83011261029957610298610148565b5b81516102a9848260208601610242565b91505092915050565b600073ffffffffffffffffffffffffffffffffffffffff82169050919050565b60006102dd826102b2565b9050919050565b6102ed816102d2565b81146102f857600080fd5b50565b60008151905061030a816102e4565b92915050565b600080604083850312156103275761032661013e565b5b600083015167ffffffffffffffff81111561034557610344610143565b5b61035185828601610284565b9250506020610362858286016102fb565b9150509250929050565b7f4e487b7100000000000000000000000000000000000000000000000000000000600052602260045260246000fd5b600060028204905060018216806103b357607f821691505b602082108114156103c7576103c661036c565b5b50919050565b6102d9806103dc6000396000f3fe608060405234801561001057600080fd5b50600436106100365760003560e01c80633aeaccf51461003b5780638052474d14610059575b600080fd5b610043610077565b604051610050919061016c565b60405180910390f35b61006161009d565b60405161006e9190610220565b60405180910390f35b600160009054906101000a900473ffffffffffffffffffffffffffffffffffffffff1681565b600080546100aa90610271565b80601f01602080910402602001604051908101604052809291908181526020018280546100d690610271565b80156101235780601f106100f857610100808354040283529160200191610123565b820191906000526020600020905b81548152906001019060200180831161010657829003601f168201915b505050505081565b600073ffffffffffffffffffffffffffffffffffffffff82169050919050565b60006101568261012b565b9050919050565b6101668161014b565b82525050565b6000602082019050610181600083018461015d565b92915050565b600081519050919050565b600082825260208201905092915050565b60005b838110156101c15780820151818401526020810190506101a6565b838111156101d0576000848401525b50505050565b6000601f19601f8301169050919050565b60006101f282610187565b6101fc8185610192565b935061020c8185602086016101a3565b610215816101d6565b840191505092915050565b6000602082019050818103600083015261023a81846101e7565b905092915050565b7f4e487b7100000000000000000000000000000000000000000000000000000000600052602260045260246000fd5b6000600282049050600182168061028957607f821691505b6020821081141561029d5761029c610242565b5b5091905056fea264697066735822122042ac7db81738b9b134ac35ead8e090749e23401bcf7c01975e948456812bc59a64736f6c634300080a003360806040523480156200001157600080fd5b5060405162000e6538038062000e658339818101604052810190620000379190620003f6565b82600481905550806000806101000a81548173ffffffffffffffffffffffffffffffffffffffff021916908373ffffffffffffffffffffffffffffffffffffffff1602179055506001600260006101000a81548160ff02191690836007811115620000a757620000a662000471565b5b02179055508160019080519060200190620000c492919062000109565b507f9384fea79f41506c532ad541214d7c107830ef5d7cf5c06a60edc467c67ed3d98282604051620000f89291906200050e565b60405180910390a1505050620005a7565b828054620001179062000571565b90600052602060002090601f0160209004810192826200013b576000855562000187565b82601f106200015657805160ff191683800117855562000187565b8280016001018555821562000187579182015b828111156200018657825182559160200191906001019062000169565b5b5090506200019691906200019a565b5090565b5b80821115620001b55760008160009055506001016200019b565b5090565b6000604051905090565b600080fd5b600080fd5b6000819050919050565b620001e281620001cd565b8114620001ee57600080fd5b50565b6000815190506200020281620001d7565b92915050565b600080fd5b600080fd5b6000601f19601f8301169050919050565b7f4e487b7100000000000000000000000000000000000000000000000000000000600052604160045260246000fd5b6200025d8262000212565b810181811067ffffffffffffffff821117156200027f576200027e62000223565b5b80604052505050565b600062000294620001b9565b9050620002a2828262000252565b919050565b600067ffffffffffffffff821115620002c557620002c462000223565b5b620002d08262000212565b9050602081019050919050565b60005b83811015620002fd578082015181840152602081019050620002e0565b838111156200030d576000848401525b50505050565b60006200032a6200032484620002a7565b62000288565b9050828152602081018484840111156200034957620003486200020d565b5b62000356848285620002dd565b509392505050565b600082601f83011262000376576200037562000208565b5b81516200038884826020860162000313565b91505092915050565b600073ffffffffffffffffffffffffffffffffffffffff82169050919050565b6000620003be8262000391565b9050919050565b620003d081620003b1565b8114620003dc57600080fd5b50565b600081519050620003f081620003c5565b92915050565b600080600060608486031215620004125762000411620001c3565b5b60006200042286828701620001f1565b935050602084015167ffffffffffffffff811115620004465762000445620001c8565b5b62000454868287016200035e565b92505060406200046786828701620003df565b9150509250925092565b7f4e487b7100000000000000000000000000000000000000000000000000000000600052602160045260246000fd5b600081519050919050565b600082825260208201905092915050565b6000620004c982620004a0565b620004d58185620004ab565b9350620004e7818560208601620002dd565b620004f28162000212565b840191505092915050565b6200050881620003b1565b82525050565b600060408201905081810360008301526200052a8185620004bc565b90506200053b6020830184620004fd565b9392505050565b7f4e487b7100000000000000000000000000000000000000000000000000000000600052602260045260246000fd5b600060028204905060018216806200058a57607f821691505b60208210811415620005a157620005a062000542565b5b50919050565b6108ae80620005b76000396000f3fe608060405234801561001057600080fd5b50600436106100885760003560e01c80639b9ab33a1161005b5780639b9ab33a14610101578063b4a99a4e1461011d578063cf7550bd1461013b578063f1b6dccd1461015957610088565b806313af40351461008d57806356de96db146100a957806364c5ba8e146100c55780638052474d146100e3575b600080fd5b6100a760048036038101906100a2919061046f565b610177565b005b6100c360048036038101906100be91906104c1565b6101ba565b005b6100cd6101e7565b6040516100da9190610587565b60405180910390f35b6100eb610275565b6040516100f89190610587565b60405180910390f35b61011b600480360381019061011691906106de565b610303565b005b61012561031d565b6040516101329190610736565b60405180910390f35b610143610341565b604051610150919061076a565b60405180910390f35b610161610347565b60405161016e91906107fc565b60405180910390f35b806000806101000a81548173ffffffffffffffffffffffffffffffffffffffff021916908373ffffffffffffffffffffffffffffffffffffffff16021790555050565b80600260006101000a81548160ff021916908360078111156101df576101de610785565b5b021790555050565b600380546101f490610846565b80601f016020809104026020016040519081016040528092919081815260200182805461022090610846565b801561026d5780601f106102425761010080835404028352916020019161026d565b820191906000526020600020905b81548152906001019060200180831161025057829003601f168201915b505050505081565b6001805461028290610846565b80601f01602080910402602001604051908101604052809291908181526020018280546102ae90610846565b80156102fb5780601f106102d0576101008083540402835291602001916102fb565b820191906000526020600020905b8154815290600101906020018083116102de57829003601f168201915b505050505081565b806003908051906020019061031992919061035a565b5050565b60008054906101000a900473ffffffffffffffffffffffffffffffffffffffff1681565b60045481565b600260009054906101000a900460ff1681565b82805461036690610846565b90600052602060002090601f01602090048101928261038857600085556103cf565b82601f106103a157805160ff19168380011785556103cf565b828001600101855582156103cf579182015b828111156103ce5782518255916020019190600101906103b3565b5b5090506103dc91906103e0565b5090565b5b808211156103f95760008160009055506001016103e1565b5090565b6000604051905090565b600080fd5b600080fd5b600073ffffffffffffffffffffffffffffffffffffffff82169050919050565b600061043c82610411565b9050919050565b61044c81610431565b811461045757600080fd5b50565b60008135905061046981610443565b92915050565b60006020828403121561048557610484610407565b5b60006104938482850161045a565b91505092915050565b600881106104a957600080fd5b50565b6000813590506104bb8161049c565b92915050565b6000602082840312156104d7576104d6610407565b5b60006104e5848285016104ac565b91505092915050565b600081519050919050565b600082825260208201905092915050565b60005b8381101561052857808201518184015260208101905061050d565b83811115610537576000848401525b50505050565b6000601f19601f8301169050919050565b6000610559826104ee565b61056381856104f9565b935061057381856020860161050a565b61057c8161053d565b840191505092915050565b600060208201905081810360008301526105a1818461054e565b905092915050565b600080fd5b600080fd5b7f4e487b7100000000000000000000000000000000000000000000000000000000600052604160045260246000fd5b6105eb8261053d565b810181811067ffffffffffffffff8211171561060a576106096105b3565b5b80604052505050565b600061061d6103fd565b905061062982826105e2565b919050565b600067ffffffffffffffff821115610649576106486105b3565b5b6106528261053d565b9050602081019050919050565b82818337600083830152505050565b600061068161067c8461062e565b610613565b90508281526020810184848401111561069d5761069c6105ae565b5b6106a884828561065f565b509392505050565b600082601f8301126106c5576106c46105a9565b5b81356106d584826020860161066e565b91505092915050565b6000602082840312156106f4576106f3610407565b5b600082013567ffffffffffffffff8111156107125761071161040c565b5b61071e848285016106b0565b91505092915050565b61073081610431565b82525050565b600060208201905061074b6000830184610727565b92915050565b6000819050919050565b61076481610751565b82525050565b600060208201905061077f600083018461075b565b92915050565b7f4e487b7100000000000000000000000000000000000000000000000000000000600052602160045260246000fd5b600881106107c5576107c4610785565b5b50565b60008190506107d6826107b4565b919050565b60006107e6826107c8565b9050919050565b6107f6816107db565b82525050565b600060208201905061081160008301846107ed565b92915050565b7f4e487b7100000000000000000000000000000000000000000000000000000000600052602260045260246000fd5b6000600282049050600182168061085e57607f821691505b6020821081141561087257610871610817565b5b5091905056fea264697066735822122055b8ebded7c38cdfd703ec3c335680021fa0e41495c78ecbaa431de1efb5fcec64736f6c634300080a0033608060405234801561001057600080fd5b506040516106b53803806106b583398181016040528101906100329190610310565b8160009080519060200190610048929190610091565b5080600160006101000a81548173ffffffffffffffffffffffffffffffffffffffff021916908373ffffffffffffffffffffffffffffffffffffffff16021790555050506103cd565b82805461009d9061039b565b90600052602060002090601f0160209004810192826100bf5760008555610106565b82601f106100d857805160ff1916838001178555610106565b82800160010185558215610106579182015b828111156101055782518255916020019190600101906100ea565b5b5090506101139190610117565b5090565b5b80821115610130576000816000905550600101610118565b5090565b6000604051905090565b600080fd5b600080fd5b600080fd5b600080fd5b6000601f19601f8301169050919050565b7f4e487b7100000000000000000000000000000000000000000000000000000000600052604160045260246000fd5b61019b82610152565b810181811067ffffffffffffffff821117156101ba576101b9610163565b5b80604052505050565b60006101cd610134565b90506101d98282610192565b919050565b600067ffffffffffffffff8211156101f9576101f8610163565b5b61020282610152565b9050602081019050919050565b60005b8381101561022d578082015181840152602081019050610212565b8381111561023c576000848401525b50505050565b6000610255610250846101de565b6101c3565b9050828152602081018484840111156102715761027061014d565b5b61027c84828561020f565b509392505050565b600082601f83011261029957610298610148565b5b81516102a9848260208601610242565b91505092915050565b600073ffffffffffffffffffffffffffffffffffffffff82169050919050565b60006102dd826102b2565b9050919050565b6102ed816102d2565b81146102f857600080fd5b50565b60008151905061030a816102e4565b92915050565b600080604083850312156103275761032661013e565b5b600083015167ffffffffffffffff81111561034557610344610143565b5b61035185828601610284565b9250506020610362858286016102fb565b9150509250929050565b7f4e487b7100000000000000000000000000000000000000000000000000000000600052602260045260246000fd5b600060028204905060018216806103b357607f821691505b602082108114156103c7576103c661036c565b5b50919050565b6102d9806103dc6000396000f3fe608060405234801561001057600080fd5b50600436106100365760003560e01c80633aeaccf51461003b5780638052474d14610059575b600080fd5b610043610077565b604051610050919061016c565b60405180910390f35b61006161009d565b60405161006e9190610220565b60405180910390f35b600160009054906101000a900473ffffffffffffffffffffffffffffffffffffffff1681565b600080546100aa90610271565b80601f01602080910402602001604051908101604052809291908181526020018280546100d690610271565b80156101235780601f106100f857610100808354040283529160200191610123565b820191906000526020600020905b81548152906001019060200180831161010657829003601f168201915b505050505081565b600073ffffffffffffffffffffffffffffffffffffffff82169050919050565b60006101568261012b565b9050919050565b6101668161014b565b82525050565b6000602082019050610181600083018461015d565b92915050565b600081519050919050565b600082825260208201905092915050565b60005b838110156101c15780820151818401526020810190506101a6565b838111156101d0576000848401525b50505050565b6000601f19601f8301169050919050565b60006101f282610187565b6101fc8185610192565b935061020c8185602086016101a3565b610215816101d6565b840191505092915050565b6000602082019050818103600083015261023a81846101e7565b905092915050565b7f4e487b7100000000000000000000000000000000000000000000000000000000600052602260045260246000fd5b6000600282049050600182168061028957607f821691505b6020821081141561029d5761029c610242565b5b5091905056fea26469706673582212204d5050abfb21f7840991cba4abc6bf0cce1778acf4aae72db70b97157f0b055864736f6c634300080a0033608060405234801561001057600080fd5b506040516106b53803806106b583398181016040528101906100329190610310565b8160009080519060200190610048929190610091565b5080600160006101000a81548173ffffffffffffffffffffffffffffffffffffffff021916908373ffffffffffffffffffffffffffffffffffffffff16021790555050506103cd565b82805461009d9061039b565b90600052602060002090601f0160209004810192826100bf5760008555610106565b82601f106100d857805160ff1916838001178555610106565b82800160010185558215610106579182015b828111156101055782518255916020019190600101906100ea565b5b5090506101139190610117565b5090565b5b80821115610130576000816000905550600101610118565b5090565b6000604051905090565b600080fd5b600080fd5b600080fd5b600080fd5b6000601f19601f8301169050919050565b7f4e487b7100000000000000000000000000000000000000000000000000000000600052604160045260246000fd5b61019b82610152565b810181811067ffffffffffffffff821117156101ba576101b9610163565b5b80604052505050565b60006101cd610134565b90506101d98282610192565b919050565b600067ffffffffffffffff8211156101f9576101f8610163565b5b61020282610152565b9050602081019050919050565b60005b8381101561022d578082015181840152602081019050610212565b8381111561023c576000848401525b50505050565b6000610255610250846101de565b6101c3565b9050828152602081018484840111156102715761027061014d565b5b61027c84828561020f565b509392505050565b600082601f83011261029957610298610148565b5b81516102a9848260208601610242565b91505092915050565b600073ffffffffffffffffffffffffffffffffffffffff82169050919050565b60006102dd826102b2565b9050919050565b6102ed816102d2565b81146102f857600080fd5b50565b60008151905061030a816102e4565b92915050565b600080604083850312156103275761032661013e565b5b600083015167ffffffffffffffff81111561034557610344610143565b5b61035185828601610284565b9250506020610362858286016102fb565b9150509250929050565b7f4e487b7100000000000000000000000000000000000000000000000000000000600052602260045260246000fd5b600060028204905060018216806103b357607f821691505b602082108114156103c7576103c661036c565b5b50919050565b6102d9806103dc6000396000f3fe608060405234801561001057600080fd5b50600436106100365760003560e01c80633aeaccf51461003b5780638052474d14610059575b600080fd5b610043610077565b604051610050919061016c565b60405180910390f35b61006161009d565b60405161006e9190610220565b60405180910390f35b600160009054906101000a900473ffffffffffffffffffffffffffffffffffffffff1681565b600080546100aa90610271565b80601f01602080910402602001604051908101604052809291908181526020018280546100d690610271565b80156101235780601f106100f857610100808354040283529160200191610123565b820191906000526020600020905b81548152906001019060200180831161010657829003601f168201915b505050505081565b600073ffffffffffffffffffffffffffffffffffffffff82169050919050565b60006101568261012b565b9050919050565b6101668161014b565b82525050565b6000602082019050610181600083018461015d565b92915050565b600081519050919050565b600082825260208201905092915050565b60005b838110156101c15780820151818401526020810190506101a6565b838111156101d0576000848401525b50505050565b6000601f19601f8301169050919050565b60006101f282610187565b6101fc8185610192565b935061020c8185602086016101a3565b610215816101d6565b840191505092915050565b6000602082019050818103600083015261023a81846101e7565b905092915050565b7f4e487b7100000000000000000000000000000000000000000000000000000000600052602260045260246000fd5b6000600282049050600182168061028957607f821691505b6020821081141561029d5761029c610242565b5b5091905056fea2646970667358221220e4d5385ef02c55858866604f0a341d52e75e37b945e9f6eb171c952ec72f804664736f6c634300080a0033a26469706673582212206f4f2267140c3a37f02279259d6b4801d158462026d4bb573e6ad353987846a164736f6c634300080a0033",
  "immutableReferences": {},
  "source": "// SPDX-License-Identifier: UNLICENSED\npragma solidity ^0.8.10;\n\nimport \"./Asset.sol\";\nimport \"./Customer.sol\";\nimport \"./Vendor.sol\";\nimport \"./Warehouse.sol\";\n\ncontract AssetTracker {\n\n    //participants\n    mapping (address=>Warehouse) public warehouses;\n    mapping (address=>Customer) public customers;\n    mapping (address=>Vendor) public vendors;\n\n    //asset\n    mapping (int=>Asset) public assets;\n    int public assetId;\n\n    //Events\n    event AssetCreate(address account, int assetID, string customer);\n    event AssetTransfer(address from, address to, int assetID);\n\n    //create customer\n    function createCustomer(string memory name, address cAddress) public {\n        Customer customer = new Customer(name, cAddress);\n        customers[cAddress] = customer;\n    }\n\n    //create vendor\n    function createVendor(string memory name, address vAddress) public {\n        Vendor vendor = new Vendor(name, vAddress);\n        vendors[vAddress] = vendor;\n    }\n\n    //create vendor\n    function createWarehouse(string memory name, address wAddress) public {\n        Warehouse wh = new Warehouse(name, wAddress);\n        warehouses[wAddress] = wh;\n    }\n\n    //Create Assets\n    function createAsset(string memory assetName) public returns (int)\n    {\n      //Only customers can create an asset\n       if (msg.sender != customers[msg.sender].Address())\n            revert(\"Only a customer can create an asset\");\n        assetId = assetId + 1;\n        Asset asset =  new Asset(assetId, assetName, msg.sender);\n        assets[assetId] = asset;\n        \n        emit AssetCreate (msg.sender, assetId, customers[msg.sender].Name());\n        return assetId;\n    }\n\n    function getCurrentOwner(int assetID) public view returns(address) {\n        Asset asset = assets[assetID];\n        return asset.Owner();\n    }\n\n    function getManufacturerAdress(address adr) public view returns(address) {\n             Customer customer = customers[adr];\n             return customer.Address();\n    }\n\n    function getCurrentState(int assetID) public view returns(Asset.StateType) {\n        Asset asset = assets[assetID];\n        return asset.State();\n    }\n\n     function setAssetCurrentLocation(int assetID, string memory assetLocation) public \n    {\n        //Transfer to Shipper from Manufacturer\n        Asset asset = assets[assetID];\n        asset.setAssetLocation(assetLocation);\n    }\n\n    function transferAsset(address to, int assetID) public \n    {\n        //Transfer to Vendor from Customer\n        Asset asset = assets[assetID];\n        if(asset.State() == Asset.StateType.Created && to == vendors[to].Address())\n        {\n         asset.setOwner(to);\n         asset.setState(Asset.StateType.Vendor);\n        }\n        \n        //Transfer to Warehouse from Vendor\n        else  if(asset.State() == Asset.StateType.Vendor && to == warehouses[to].Address())\n        {\n            asset.setOwner(to);\n            asset.setState(Asset.StateType.Warehouse);\n        }\n        \n        //Transfer to Customer from Dealer\n        else  if(asset.State() == Asset.StateType.Warehouse && to == customers[to].Address())\n        {\n            asset.setOwner(to);\n            asset.setState(Asset.StateType.Shipped);\n        }\n       \n        emit AssetTransfer (msg.sender, to, assetID);\n    }\n}",
  "sourcePath": "/Users/eetti/dev/personal/smu/contracts/AssetTracker.sol",
  "compiler": {
    "name": "solc",
    "version": "0.8.10+commit.fc410830.Emscripten.clang"
  },
  "schemaVersion": "3.4.3",
  "updatedAt": "2021-12-15T05:20:55.361Z",
  "networkType": "ethereum",
  "devdoc": {
    "kind": "dev",
    "methods": {},
    "version": 1
  },
  "userdoc": {
    "kind": "user",
    "methods": {},
    "version": 1
  }
}