{
  "contractName": "AssetTracker",
  "abi": [
    {
      "anonymous": false,
      "inputs": [
        {
          "indexed": false,
          "internalType": "address",
          "name": "account",
          "type": "address"
        },
        {
          "indexed": false,
          "internalType": "int256",
          "name": "assetID",
          "type": "int256"
        },
        {
          "indexed": false,
          "internalType": "string",
          "name": "customer",
          "type": "string"
        }
      ],
      "name": "AssetCreate",
      "type": "event"
    },
    {
      "anonymous": false,
      "inputs": [
        {
          "indexed": false,
          "internalType": "address",
          "name": "from",
          "type": "address"
        },
        {
          "indexed": false,
          "internalType": "address",
          "name": "to",
          "type": "address"
        },
        {
          "indexed": false,
          "internalType": "int256",
          "name": "assetID",
          "type": "int256"
        }
      ],
      "name": "AssetTransfer",
      "type": "event"
    },
    {
      "inputs": [],
      "name": "assetId",
      "outputs": [
        {
          "internalType": "int256",
          "name": "",
          "type": "int256"
        }
      ],
      "stateMutability": "view",
      "type": "function"
    },
    {
      "inputs": [
        {
          "internalType": "int256",
          "name": "",
          "type": "int256"
        }
      ],
      "name": "assets",
      "outputs": [
        {
          "internalType": "contract Asset",
          "name": "",
          "type": "address"
        }
      ],
      "stateMutability": "view",
      "type": "function"
    },
    {
      "inputs": [
        {
          "internalType": "address",
          "name": "",
          "type": "address"
        }
      ],
      "name": "customers",
      "outputs": [
        {
          "internalType": "contract Customer",
          "name": "",
          "type": "address"
        }
      ],
      "stateMutability": "view",
      "type": "function"
    },
    {
      "inputs": [
        {
          "internalType": "address",
          "name": "",
          "type": "address"
        }
      ],
      "name": "vendors",
      "outputs": [
        {
          "internalType": "contract Vendor",
          "name": "",
          "type": "address"
        }
      ],
      "stateMutability": "view",
      "type": "function"
    },
    {
      "inputs": [
        {
          "internalType": "address",
          "name": "",
          "type": "address"
        }
      ],
      "name": "warehouses",
      "outputs": [
        {
          "internalType": "contract Warehouse",
          "name": "",
          "type": "address"
        }
      ],
      "stateMutability": "view",
      "type": "function"
    },
    {
      "inputs": [
        {
          "internalType": "string",
          "name": "name",
          "type": "string"
        },
        {
          "internalType": "address",
          "name": "cAddress",
          "type": "address"
        }
      ],
      "name": "createCustomer",
      "outputs": [],
      "stateMutability": "nonpayable",
      "type": "function"
    },
    {
      "inputs": [
        {
          "internalType": "string",
          "name": "name",
          "type": "string"
        },
        {
          "internalType": "address",
          "name": "vAddress",
          "type": "address"
        }
      ],
      "name": "createVendor",
      "outputs": [],
      "stateMutability": "nonpayable",
      "type": "function"
    },
    {
      "inputs": [
        {
          "internalType": "string",
          "name": "name",
          "type": "string"
        },
        {
          "internalType": "address",
          "name": "wAddress",
          "type": "address"
        }
      ],
      "name": "createWarehouse",
      "outputs": [],
      "stateMutability": "nonpayable",
      "type": "function"
    },
    {
      "inputs": [
        {
          "internalType": "string",
          "name": "assetName",
          "type": "string"
        }
      ],
      "name": "createAsset",
      "outputs": [
        {
          "internalType": "int256",
          "name": "",
          "type": "int256"
        }
      ],
      "stateMutability": "nonpayable",
      "type": "function"
    },
    {
      "inputs": [
        {
          "internalType": "int256",
          "name": "assetID",
          "type": "int256"
        }
      ],
      "name": "getCurrentOwner",
      "outputs": [
        {
          "internalType": "address",
          "name": "",
          "type": "address"
        }
      ],
      "stateMutability": "view",
      "type": "function"
    },
    {
      "inputs": [
        {
          "internalType": "int256",
          "name": "assetID",
          "type": "int256"
        }
      ],
      "name": "getCurrentState",
      "outputs": [
        {
          "internalType": "string",
          "name": "state",
          "type": "string"
        }
      ],
      "stateMutability": "view",
      "type": "function"
    },
    {
      "inputs": [
        {
          "internalType": "int256",
          "name": "assetID",
          "type": "int256"
        }
      ],
      "name": "getAsset",
      "outputs": [
        {
          "internalType": "int256",
          "name": "id",
          "type": "int256"
        },
        {
          "internalType": "string",
          "name": "name",
          "type": "string"
        },
        {
          "internalType": "uint256",
          "name": "state",
          "type": "uint256"
        },
        {
          "internalType": "address",
          "name": "owner",
          "type": "address"
        }
      ],
      "stateMutability": "view",
      "type": "function"
    },
    {
      "inputs": [
        {
          "internalType": "int256",
          "name": "assetID",
          "type": "int256"
        },
        {
          "internalType": "string",
          "name": "assetLocation",
          "type": "string"
        }
      ],
      "name": "setAssetCurrentLocation",
      "outputs": [],
      "stateMutability": "nonpayable",
      "type": "function"
    },
    {
      "inputs": [
        {
          "internalType": "address",
          "name": "to",
          "type": "address"
        },
        {
          "internalType": "int256",
          "name": "assetID",
          "type": "int256"
        }
      ],
      "name": "transferAsset",
      "outputs": [],
      "stateMutability": "nonpayable",
      "type": "function"
    }
  ],
  "bytecode": "0x608060405234801561001057600080fd5b506149ad806100206000396000f3fe60806040523480156200001157600080fd5b5060043610620001005760003560e01c80638805bdf71162000099578063b51eea62116200006f578063b51eea6214620002e4578063e57ecf0c1462000304578063e8339ed51462000324578063ff489e6b146200035a5762000100565b80638805bdf714620002555780638d6efb73146200028b578063b4667ddb14620002ab5762000100565b8063336989ae11620000db578063336989ae146200019157806344de240a14620001c757806355b1f24e14620001e95780638485707d146200021f5762000100565b806326f5fad0146200010557806327e30c36146200013b5780632fa2d0451462000171575b600080fd5b6200012360048036038101906200011d9190620017f9565b6200037a565b604051620001329190620018b6565b60405180910390f35b62000159600480360381019062000153919062001918565b620003ad565b6040516200016891906200196f565b60405180910390f35b6200018f600480360381019062000189919062001aee565b620003e0565b005b620001af6004803603810190620001a9919062001918565b620004a1565b604051620001be919062001b79565b60405180910390f35b620001d1620004d4565b604051620001e0919062001ba7565b60405180910390f35b62000207600480360381019062000201919062001bc4565b620004da565b60405162000216919062001ba7565b60405180910390f35b6200023d6004803603810190620002379190620017f9565b62000838565b6040516200024c919062001c26565b60405180910390f35b6200027360048036038101906200026d919062001918565b620008eb565b60405162000282919062001c68565b60405180910390f35b620002a96004803603810190620002a3919062001aee565b6200091e565b005b620002c96004803603810190620002c39190620017f9565b620009e0565b604051620002db949392919062001d33565b60405180910390f35b620003026004803603810190620002fc919062001aee565b62000c11565b005b6200032260048036038101906200031c919062001d87565b62000cd3565b005b6200034260048036038101906200033c9190620017f9565b6200157a565b60405162000351919062001dce565b60405180910390f35b62000378600480360381019062000372919062001df2565b620016c6565b005b60036020528060005260406000206000915054906101000a900473ffffffffffffffffffffffffffffffffffffffff1681565b60026020528060005260406000206000915054906101000a900473ffffffffffffffffffffffffffffffffffffffff1681565b60008282604051620003f29062001772565b620003ff92919062001e58565b604051809103906000f0801580156200041c573d6000803e3d6000fd5b509050806000808473ffffffffffffffffffffffffffffffffffffffff1673ffffffffffffffffffffffffffffffffffffffff16815260200190815260200160002060006101000a81548173ffffffffffffffffffffffffffffffffffffffff021916908373ffffffffffffffffffffffffffffffffffffffff160217905550505050565b60016020528060005260406000206000915054906101000a900473ffffffffffffffffffffffffffffffffffffffff1681565b60045481565b6000600160003373ffffffffffffffffffffffffffffffffffffffff1673ffffffffffffffffffffffffffffffffffffffff16815260200190815260200160002060009054906101000a900473ffffffffffffffffffffffffffffffffffffffff1673ffffffffffffffffffffffffffffffffffffffff16633aeaccf56040518163ffffffff1660e01b8152600401602060405180830381865afa15801562000587573d6000803e3d6000fd5b505050506040513d601f19601f82011682018060405250810190620005ad919062001ea3565b73ffffffffffffffffffffffffffffffffffffffff163373ffffffffffffffffffffffffffffffffffffffff16146200061d576040517f08c379a0000000000000000000000000000000000000000000000000000000008152600401620006149062001f4b565b60405180910390fd5b60008290506000815114156200066a576040517f08c379a0000000000000000000000000000000000000000000000000000000008152600401620006619062001fbd565b60405180910390fd5b60016004546200067b91906200200e565b60048190555060006004548433604051620006969062001780565b620006a493929190620020ac565b604051809103906000f080158015620006c1573d6000803e3d6000fd5b5090508060036000600454815260200190815260200160002060006101000a81548173ffffffffffffffffffffffffffffffffffffffff021916908373ffffffffffffffffffffffffffffffffffffffff1602179055507f5650d9b11661472f80366cefe4cb8b30ea441f233ba000ed7b9c443b06ea151433600454600160003373ffffffffffffffffffffffffffffffffffffffff1673ffffffffffffffffffffffffffffffffffffffff16815260200190815260200160002060009054906101000a900473ffffffffffffffffffffffffffffffffffffffff1673ffffffffffffffffffffffffffffffffffffffff16638052474d6040518163ffffffff1660e01b8152600401600060405180830381865afa158015620007e8573d6000803e3d6000fd5b505050506040513d6000823e3d601f19601f820116820180604052508101906200081391906200216e565b6040516200082493929190620021bf565b60405180910390a160045492505050919050565b6000806003600084815260200190815260200160002060009054906101000a900473ffffffffffffffffffffffffffffffffffffffff1690508073ffffffffffffffffffffffffffffffffffffffff1663b4a99a4e6040518163ffffffff1660e01b8152600401602060405180830381865afa158015620008bd573d6000803e3d6000fd5b505050506040513d601f19601f82011682018060405250810190620008e3919062001ea3565b915050919050565b60006020528060005260406000206000915054906101000a900473ffffffffffffffffffffffffffffffffffffffff1681565b6000828260405162000930906200178e565b6200093d92919062001e58565b604051809103906000f0801580156200095a573d6000803e3d6000fd5b50905080600260008473ffffffffffffffffffffffffffffffffffffffff1673ffffffffffffffffffffffffffffffffffffffff16815260200190815260200160002060006101000a81548173ffffffffffffffffffffffffffffffffffffffff021916908373ffffffffffffffffffffffffffffffffffffffff160217905550505050565b6000606060008060006003600087815260200190815260200160002060009054906101000a900473ffffffffffffffffffffffffffffffffffffffff1690508073ffffffffffffffffffffffffffffffffffffffff1663cf7550bd6040518163ffffffff1660e01b8152600401602060405180830381865afa15801562000a6b573d6000803e3d6000fd5b505050506040513d601f19601f8201168201806040525081019062000a9191906200221a565b8173ffffffffffffffffffffffffffffffffffffffff16638052474d6040518163ffffffff1660e01b8152600401600060405180830381865afa15801562000add573d6000803e3d6000fd5b505050506040513d6000823e3d601f19601f8201168201806040525081019062000b0891906200216e565b8273ffffffffffffffffffffffffffffffffffffffff1663f1b6dccd6040518163ffffffff1660e01b8152600401602060405180830381865afa15801562000b54573d6000803e3d6000fd5b505050506040513d601f19601f8201168201806040525081019062000b7a919062002274565b600381111562000b8f5762000b8e620022a6565b5b8373ffffffffffffffffffffffffffffffffffffffff1663b4a99a4e6040518163ffffffff1660e01b8152600401602060405180830381865afa15801562000bdb573d6000803e3d6000fd5b505050506040513d601f19601f8201168201806040525081019062000c01919062001ea3565b9450945094509450509193509193565b6000828260405162000c23906200179c565b62000c3092919062001e58565b604051809103906000f08015801562000c4d573d6000803e3d6000fd5b50905080600160008473ffffffffffffffffffffffffffffffffffffffff1673ffffffffffffffffffffffffffffffffffffffff16815260200190815260200160002060006101000a81548173ffffffffffffffffffffffffffffffffffffffff021916908373ffffffffffffffffffffffffffffffffffffffff160217905550505050565b62000cde8162000838565b73ffffffffffffffffffffffffffffffffffffffff163373ffffffffffffffffffffffffffffffffffffffff161462000d4e576040517f08c379a000000000000000000000000000000000000000000000000000000000815260040162000d45906200234b565b60405180910390fd5b60006003600083815260200190815260200160002060009054906101000a900473ffffffffffffffffffffffffffffffffffffffff1690506000600381111562000d9d5762000d9c620022a6565b5b8173ffffffffffffffffffffffffffffffffffffffff1663f1b6dccd6040518163ffffffff1660e01b8152600401602060405180830381865afa15801562000de9573d6000803e3d6000fd5b505050506040513d601f19601f8201168201806040525081019062000e0f919062002274565b600381111562000e245762000e23620022a6565b5b14801562000f2d5750600260008473ffffffffffffffffffffffffffffffffffffffff1673ffffffffffffffffffffffffffffffffffffffff16815260200190815260200160002060009054906101000a900473ffffffffffffffffffffffffffffffffffffffff1673ffffffffffffffffffffffffffffffffffffffff16633aeaccf56040518163ffffffff1660e01b8152600401602060405180830381865afa15801562000ed8573d6000803e3d6000fd5b505050506040513d601f19601f8201168201806040525081019062000efe919062001ea3565b73ffffffffffffffffffffffffffffffffffffffff168373ffffffffffffffffffffffffffffffffffffffff16145b1562001018578073ffffffffffffffffffffffffffffffffffffffff166313af4035846040518263ffffffff1660e01b815260040162000f6e919062001c26565b600060405180830381600087803b15801562000f8957600080fd5b505af115801562000f9e573d6000803e3d6000fd5b505050508073ffffffffffffffffffffffffffffffffffffffff166356de96db60016040518263ffffffff1660e01b815260040162000fde9190620023be565b600060405180830381600087803b15801562000ff957600080fd5b505af11580156200100e573d6000803e3d6000fd5b5050505062001538565b600160038111156200102f576200102e620022a6565b5b8173ffffffffffffffffffffffffffffffffffffffff1663f1b6dccd6040518163ffffffff1660e01b8152600401602060405180830381865afa1580156200107b573d6000803e3d6000fd5b505050506040513d601f19601f82011682018060405250810190620010a1919062002274565b6003811115620010b657620010b5620022a6565b5b148015620011be57506000808473ffffffffffffffffffffffffffffffffffffffff1673ffffffffffffffffffffffffffffffffffffffff16815260200190815260200160002060009054906101000a900473ffffffffffffffffffffffffffffffffffffffff1673ffffffffffffffffffffffffffffffffffffffff16633aeaccf56040518163ffffffff1660e01b8152600401602060405180830381865afa15801562001169573d6000803e3d6000fd5b505050506040513d601f19601f820116820180604052508101906200118f919062001ea3565b73ffffffffffffffffffffffffffffffffffffffff168373ffffffffffffffffffffffffffffffffffffffff16145b15620012a9578073ffffffffffffffffffffffffffffffffffffffff166313af4035846040518263ffffffff1660e01b8152600401620011ff919062001c26565b600060405180830381600087803b1580156200121a57600080fd5b505af11580156200122f573d6000803e3d6000fd5b505050508073ffffffffffffffffffffffffffffffffffffffff166356de96db60026040518263ffffffff1660e01b81526004016200126f9190620023be565b600060405180830381600087803b1580156200128a57600080fd5b505af11580156200129f573d6000803e3d6000fd5b5050505062001537565b60026003811115620012c057620012bf620022a6565b5b8173ffffffffffffffffffffffffffffffffffffffff1663f1b6dccd6040518163ffffffff1660e01b8152600401602060405180830381865afa1580156200130c573d6000803e3d6000fd5b505050506040513d601f19601f8201168201806040525081019062001332919062002274565b6003811115620013475762001346620022a6565b5b148015620014505750600160008473ffffffffffffffffffffffffffffffffffffffff1673ffffffffffffffffffffffffffffffffffffffff16815260200190815260200160002060009054906101000a900473ffffffffffffffffffffffffffffffffffffffff1673ffffffffffffffffffffffffffffffffffffffff16633aeaccf56040518163ffffffff1660e01b8152600401602060405180830381865afa158015620013fb573d6000803e3d6000fd5b505050506040513d601f19601f8201168201806040525081019062001421919062001ea3565b73ffffffffffffffffffffffffffffffffffffffff168373ffffffffffffffffffffffffffffffffffffffff16145b1562001536578073ffffffffffffffffffffffffffffffffffffffff166313af4035846040518263ffffffff1660e01b815260040162001491919062001c26565b600060405180830381600087803b158015620014ac57600080fd5b505af1158015620014c1573d6000803e3d6000fd5b505050508073ffffffffffffffffffffffffffffffffffffffff166356de96db60036040518263ffffffff1660e01b8152600401620015019190620023be565b600060405180830381600087803b1580156200151c57600080fd5b505af115801562001531573d6000803e3d6000fd5b505050505b5b5b7fc59001f872a4500986afbe6a5a3ece4c5ffbfef1e04dce518ca8825fb3f905ad3384846040516200156d93929190620023db565b60405180910390a1505050565b606060006003600084815260200190815260200160002060009054906101000a900473ffffffffffffffffffffffffffffffffffffffff1690508073ffffffffffffffffffffffffffffffffffffffff16634fcebeb48273ffffffffffffffffffffffffffffffffffffffff1663f1b6dccd6040518163ffffffff1660e01b8152600401602060405180830381865afa1580156200161c573d6000803e3d6000fd5b505050506040513d601f19601f8201168201806040525081019062001642919062002274565b6003811115620016575762001656620022a6565b5b6040518263ffffffff1660e01b815260040162001675919062002418565b600060405180830381865afa15801562001693573d6000803e3d6000fd5b505050506040513d6000823e3d601f19601f82011682018060405250810190620016be91906200216e565b915050919050565b60006003600084815260200190815260200160002060009054906101000a900473ffffffffffffffffffffffffffffffffffffffff1690508073ffffffffffffffffffffffffffffffffffffffff16639b9ab33a836040518263ffffffff1660e01b815260040162001739919062001dce565b600060405180830381600087803b1580156200175457600080fd5b505af115801562001769573d6000803e3d6000fd5b50505050505050565b6106b5806200243683390190565b6111238062002aeb83390190565b6106b58062003c0e83390190565b6106b580620042c383390190565b6000604051905090565b600080fd5b600080fd5b6000819050919050565b620017d381620017be565b8114620017df57600080fd5b50565b600081359050620017f381620017c8565b92915050565b600060208284031215620018125762001811620017b4565b5b60006200182284828501620017e2565b91505092915050565b600073ffffffffffffffffffffffffffffffffffffffff82169050919050565b6000819050919050565b600062001876620018706200186a846200182b565b6200184b565b6200182b565b9050919050565b60006200188a8262001855565b9050919050565b60006200189e826200187d565b9050919050565b620018b08162001891565b82525050565b6000602082019050620018cd6000830184620018a5565b92915050565b6000620018e0826200182b565b9050919050565b620018f281620018d3565b8114620018fe57600080fd5b50565b6000813590506200191281620018e7565b92915050565b600060208284031215620019315762001930620017b4565b5b6000620019418482850162001901565b91505092915050565b600062001957826200187d565b9050919050565b62001969816200194a565b82525050565b60006020820190506200198660008301846200195e565b92915050565b600080fd5b600080fd5b6000601f19601f8301169050919050565b7f4e487b7100000000000000000000000000000000000000000000000000000000600052604160045260246000fd5b620019e18262001996565b810181811067ffffffffffffffff8211171562001a035762001a02620019a7565b5b80604052505050565b600062001a18620017aa565b905062001a268282620019d6565b919050565b600067ffffffffffffffff82111562001a495762001a48620019a7565b5b62001a548262001996565b9050602081019050919050565b82818337600083830152505050565b600062001a8762001a818462001a2b565b62001a0c565b90508281526020810184848401111562001aa65762001aa562001991565b5b62001ab384828562001a61565b509392505050565b600082601f83011262001ad35762001ad26200198c565b5b813562001ae584826020860162001a70565b91505092915050565b6000806040838503121562001b085762001b07620017b4565b5b600083013567ffffffffffffffff81111562001b295762001b28620017b9565b5b62001b378582860162001abb565b925050602062001b4a8582860162001901565b9150509250929050565b600062001b61826200187d565b9050919050565b62001b738162001b54565b82525050565b600060208201905062001b90600083018462001b68565b92915050565b62001ba181620017be565b82525050565b600060208201905062001bbe600083018462001b96565b92915050565b60006020828403121562001bdd5762001bdc620017b4565b5b600082013567ffffffffffffffff81111562001bfe5762001bfd620017b9565b5b62001c0c8482850162001abb565b91505092915050565b62001c2081620018d3565b82525050565b600060208201905062001c3d600083018462001c15565b92915050565b600062001c50826200187d565b9050919050565b62001c628162001c43565b82525050565b600060208201905062001c7f600083018462001c57565b92915050565b600081519050919050565b600082825260208201905092915050565b60005b8381101562001cc157808201518184015260208101905062001ca4565b8381111562001cd1576000848401525b50505050565b600062001ce48262001c85565b62001cf0818562001c90565b935062001d0281856020860162001ca1565b62001d0d8162001996565b840191505092915050565b6000819050919050565b62001d2d8162001d18565b82525050565b600060808201905062001d4a600083018762001b96565b818103602083015262001d5e818662001cd7565b905062001d6f604083018562001d22565b62001d7e606083018462001c15565b95945050505050565b6000806040838503121562001da15762001da0620017b4565b5b600062001db18582860162001901565b925050602062001dc485828601620017e2565b9150509250929050565b6000602082019050818103600083015262001dea818462001cd7565b905092915050565b6000806040838503121562001e0c5762001e0b620017b4565b5b600062001e1c85828601620017e2565b925050602083013567ffffffffffffffff81111562001e405762001e3f620017b9565b5b62001e4e8582860162001abb565b9150509250929050565b6000604082019050818103600083015262001e74818562001cd7565b905062001e85602083018462001c15565b9392505050565b60008151905062001e9d81620018e7565b92915050565b60006020828403121562001ebc5762001ebb620017b4565b5b600062001ecc8482850162001e8c565b91505092915050565b7f4f6e6c79206120637573746f6d65722063616e2063726561746520616e20617360008201527f7365740000000000000000000000000000000000000000000000000000000000602082015250565b600062001f3360238362001c90565b915062001f408262001ed5565b604082019050919050565b6000602082019050818103600083015262001f668162001f24565b9050919050565b7f6173736574206e616d65206d757374206e6f74206265206e756c6c0000000000600082015250565b600062001fa5601b8362001c90565b915062001fb28262001f6d565b602082019050919050565b6000602082019050818103600083015262001fd88162001f96565b9050919050565b7f4e487b7100000000000000000000000000000000000000000000000000000000600052601160045260246000fd5b60006200201b82620017be565b91506200202883620017be565b9250817f7fffffffffffffffffffffffffffffffffffffffffffffffffffffffffffffff0383136000831215161562002066576200206562001fdf565b5b817f8000000000000000000000000000000000000000000000000000000000000000038312600083121615620020a157620020a062001fdf565b5b828201905092915050565b6000606082019050620020c3600083018662001b96565b8181036020830152620020d7818562001cd7565b9050620020e8604083018462001c15565b949350505050565b600062002107620021018462001a2b565b62001a0c565b90508281526020810184848401111562002126576200212562001991565b5b6200213384828562001ca1565b509392505050565b600082601f8301126200215357620021526200198c565b5b815162002165848260208601620020f0565b91505092915050565b600060208284031215620021875762002186620017b4565b5b600082015167ffffffffffffffff811115620021a857620021a7620017b9565b5b620021b6848285016200213b565b91505092915050565b6000606082019050620021d6600083018662001c15565b620021e5602083018562001b96565b8181036040830152620021f9818462001cd7565b9050949350505050565b6000815190506200221481620017c8565b92915050565b600060208284031215620022335762002232620017b4565b5b6000620022438482850162002203565b91505092915050565b600481106200225a57600080fd5b50565b6000815190506200226e816200224c565b92915050565b6000602082840312156200228d576200228c620017b4565b5b60006200229d848285016200225d565b91505092915050565b7f4e487b7100000000000000000000000000000000000000000000000000000000600052602160045260246000fd5b7f4f6e6c7920616e206f776e65722063616e207472616e7366657220616e20617360008201527f7365740000000000000000000000000000000000000000000000000000000000602082015250565b60006200233360238362001c90565b91506200234082620022d5565b604082019050919050565b60006020820190508181036000830152620023668162002324565b9050919050565b60048110620023815762002380620022a6565b5b50565b600081905062002394826200236d565b919050565b6000620023a68262002384565b9050919050565b620023b88162002399565b82525050565b6000602082019050620023d56000830184620023ad565b92915050565b6000606082019050620023f2600083018662001c15565b62002401602083018562001c15565b62002410604083018462001b96565b949350505050565b60006020820190506200242f600083018462001d22565b9291505056fe608060405234801561001057600080fd5b506040516106b53803806106b583398181016040528101906100329190610310565b8160009080519060200190610048929190610091565b5080600160006101000a81548173ffffffffffffffffffffffffffffffffffffffff021916908373ffffffffffffffffffffffffffffffffffffffff16021790555050506103cd565b82805461009d9061039b565b90600052602060002090601f0160209004810192826100bf5760008555610106565b82601f106100d857805160ff1916838001178555610106565b82800160010185558215610106579182015b828111156101055782518255916020019190600101906100ea565b5b5090506101139190610117565b5090565b5b80821115610130576000816000905550600101610118565b5090565b6000604051905090565b600080fd5b600080fd5b600080fd5b600080fd5b6000601f19601f8301169050919050565b7f4e487b7100000000000000000000000000000000000000000000000000000000600052604160045260246000fd5b61019b82610152565b810181811067ffffffffffffffff821117156101ba576101b9610163565b5b80604052505050565b60006101cd610134565b90506101d98282610192565b919050565b600067ffffffffffffffff8211156101f9576101f8610163565b5b61020282610152565b9050602081019050919050565b60005b8381101561022d578082015181840152602081019050610212565b8381111561023c576000848401525b50505050565b6000610255610250846101de565b6101c3565b9050828152602081018484840111156102715761027061014d565b5b61027c84828561020f565b509392505050565b600082601f83011261029957610298610148565b5b81516102a9848260208601610242565b91505092915050565b600073ffffffffffffffffffffffffffffffffffffffff82169050919050565b60006102dd826102b2565b9050919050565b6102ed816102d2565b81146102f857600080fd5b50565b60008151905061030a816102e4565b92915050565b600080604083850312156103275761032661013e565b5b600083015167ffffffffffffffff81111561034557610344610143565b5b61035185828601610284565b9250506020610362858286016102fb565b9150509250929050565b7f4e487b7100000000000000000000000000000000000000000000000000000000600052602260045260246000fd5b600060028204905060018216806103b357607f821691505b602082108114156103c7576103c661036c565b5b50919050565b6102d9806103dc6000396000f3fe608060405234801561001057600080fd5b50600436106100365760003560e01c80633aeaccf51461003b5780638052474d14610059575b600080fd5b610043610077565b604051610050919061016c565b60405180910390f35b61006161009d565b60405161006e9190610220565b60405180910390f35b600160009054906101000a900473ffffffffffffffffffffffffffffffffffffffff1681565b600080546100aa90610271565b80601f01602080910402602001604051908101604052809291908181526020018280546100d690610271565b80156101235780601f106100f857610100808354040283529160200191610123565b820191906000526020600020905b81548152906001019060200180831161010657829003601f168201915b505050505081565b600073ffffffffffffffffffffffffffffffffffffffff82169050919050565b60006101568261012b565b9050919050565b6101668161014b565b82525050565b6000602082019050610181600083018461015d565b92915050565b600081519050919050565b600082825260208201905092915050565b60005b838110156101c15780820151818401526020810190506101a6565b838111156101d0576000848401525b50505050565b6000601f19601f8301169050919050565b60006101f282610187565b6101fc8185610192565b935061020c8185602086016101a3565b610215816101d6565b840191505092915050565b6000602082019050818103600083015261023a81846101e7565b905092915050565b7f4e487b7100000000000000000000000000000000000000000000000000000000600052602260045260246000fd5b6000600282049050600182168061028957607f821691505b6020821081141561029d5761029c610242565b5b5091905056fea2646970667358221220ab829da87bd0001456aa0dbe8080351a0c3cbc59b204c1740f961ef30891504b64736f6c634300080a003360806040523480156200001157600080fd5b506040516200112338038062001123833981810160405281019062000037919062000576565b82600481905550806000806101000a81548173ffffffffffffffffffffffffffffffffffffffff021916908373ffffffffffffffffffffffffffffffffffffffff1602179055506000600260006101000a81548160ff02191690836003811115620000a757620000a6620005f1565b5b02179055508160019080519060200190620000c492919062000289565b506040518060400160405280600781526020017f4372656174656400000000000000000000000000000000000000000000000000815250600560006001815260200190815260200160002090805190602001906200012492919062000289565b506040518060400160405280600681526020017f56656e646f720000000000000000000000000000000000000000000000000000815250600560006003815260200190815260200160002090805190602001906200018492919062000289565b506040518060400160405280600981526020017f57617265686f757365000000000000000000000000000000000000000000000081525060056000600481526020019081526020016000209080519060200190620001e492919062000289565b506040518060400160405280600781526020017f5368697070656400000000000000000000000000000000000000000000000000815250600560006005815260200190815260200160002090805190602001906200024492919062000289565b507f9384fea79f41506c532ad541214d7c107830ef5d7cf5c06a60edc467c67ed3d98282604051620002789291906200068e565b60405180910390a150505062000727565b8280546200029790620006f1565b90600052602060002090601f016020900481019282620002bb576000855562000307565b82601f10620002d657805160ff191683800117855562000307565b8280016001018555821562000307579182015b8281111562000306578251825591602001919060010190620002e9565b5b5090506200031691906200031a565b5090565b5b80821115620003355760008160009055506001016200031b565b5090565b6000604051905090565b600080fd5b600080fd5b6000819050919050565b62000362816200034d565b81146200036e57600080fd5b50565b600081519050620003828162000357565b92915050565b600080fd5b600080fd5b6000601f19601f8301169050919050565b7f4e487b7100000000000000000000000000000000000000000000000000000000600052604160045260246000fd5b620003dd8262000392565b810181811067ffffffffffffffff82111715620003ff57620003fe620003a3565b5b80604052505050565b60006200041462000339565b9050620004228282620003d2565b919050565b600067ffffffffffffffff821115620004455762000444620003a3565b5b620004508262000392565b9050602081019050919050565b60005b838110156200047d57808201518184015260208101905062000460565b838111156200048d576000848401525b50505050565b6000620004aa620004a48462000427565b62000408565b905082815260208101848484011115620004c957620004c86200038d565b5b620004d68482856200045d565b509392505050565b600082601f830112620004f657620004f562000388565b5b81516200050884826020860162000493565b91505092915050565b600073ffffffffffffffffffffffffffffffffffffffff82169050919050565b60006200053e8262000511565b9050919050565b620005508162000531565b81146200055c57600080fd5b50565b600081519050620005708162000545565b92915050565b60008060006060848603121562000592576200059162000343565b5b6000620005a28682870162000371565b935050602084015167ffffffffffffffff811115620005c657620005c562000348565b5b620005d486828701620004de565b9250506040620005e7868287016200055f565b9150509250925092565b7f4e487b7100000000000000000000000000000000000000000000000000000000600052602160045260246000fd5b600081519050919050565b600082825260208201905092915050565b6000620006498262000620565b6200065581856200062b565b9350620006678185602086016200045d565b620006728162000392565b840191505092915050565b620006888162000531565b82525050565b60006040820190508181036000830152620006aa81856200063c565b9050620006bb60208301846200067d565b9392505050565b7f4e487b7100000000000000000000000000000000000000000000000000000000600052602260045260246000fd5b600060028204905060018216806200070a57607f821691505b60208210811415620007215762000720620006c2565b5b50919050565b6109ec80620007376000396000f3fe608060405234801561001057600080fd5b50600436106100935760003560e01c80638052474d116100665780638052474d1461011e5780639b9ab33a1461013c578063b4a99a4e14610158578063cf7550bd14610176578063f1b6dccd1461019457610093565b806313af4035146100985780634fcebeb4146100b457806356de96db146100e457806364c5ba8e14610100575b600080fd5b6100b260048036038101906100ad919061054a565b6101b2565b005b6100ce60048036038101906100c991906105ad565b6101f5565b6040516100db9190610673565b60405180910390f35b6100fe60048036038101906100f991906106ba565b610295565b005b6101086102c2565b6040516101159190610673565b60405180910390f35b610126610350565b6040516101339190610673565b60405180910390f35b6101566004803603810190610151919061081c565b6103de565b005b6101606103f8565b60405161016d9190610874565b60405180910390f35b61017e61041c565b60405161018b91906108a8565b60405180910390f35b61019c610422565b6040516101a9919061093a565b60405180910390f35b806000806101000a81548173ffffffffffffffffffffffffffffffffffffffff021916908373ffffffffffffffffffffffffffffffffffffffff16021790555050565b6005602052806000526040600020600091509050805461021490610984565b80601f016020809104026020016040519081016040528092919081815260200182805461024090610984565b801561028d5780601f106102625761010080835404028352916020019161028d565b820191906000526020600020905b81548152906001019060200180831161027057829003601f168201915b505050505081565b80600260006101000a81548160ff021916908360038111156102ba576102b96108c3565b5b021790555050565b600380546102cf90610984565b80601f01602080910402602001604051908101604052809291908181526020018280546102fb90610984565b80156103485780601f1061031d57610100808354040283529160200191610348565b820191906000526020600020905b81548152906001019060200180831161032b57829003601f168201915b505050505081565b6001805461035d90610984565b80601f016020809104026020016040519081016040528092919081815260200182805461038990610984565b80156103d65780601f106103ab576101008083540402835291602001916103d6565b820191906000526020600020905b8154815290600101906020018083116103b957829003601f168201915b505050505081565b80600390805190602001906103f4929190610435565b5050565b60008054906101000a900473ffffffffffffffffffffffffffffffffffffffff1681565b60045481565b600260009054906101000a900460ff1681565b82805461044190610984565b90600052602060002090601f01602090048101928261046357600085556104aa565b82601f1061047c57805160ff19168380011785556104aa565b828001600101855582156104aa579182015b828111156104a957825182559160200191906001019061048e565b5b5090506104b791906104bb565b5090565b5b808211156104d45760008160009055506001016104bc565b5090565b6000604051905090565b600080fd5b600080fd5b600073ffffffffffffffffffffffffffffffffffffffff82169050919050565b6000610517826104ec565b9050919050565b6105278161050c565b811461053257600080fd5b50565b6000813590506105448161051e565b92915050565b6000602082840312156105605761055f6104e2565b5b600061056e84828501610535565b91505092915050565b6000819050919050565b61058a81610577565b811461059557600080fd5b50565b6000813590506105a781610581565b92915050565b6000602082840312156105c3576105c26104e2565b5b60006105d184828501610598565b91505092915050565b600081519050919050565b600082825260208201905092915050565b60005b838110156106145780820151818401526020810190506105f9565b83811115610623576000848401525b50505050565b6000601f19601f8301169050919050565b6000610645826105da565b61064f81856105e5565b935061065f8185602086016105f6565b61066881610629565b840191505092915050565b6000602082019050818103600083015261068d818461063a565b905092915050565b600481106106a257600080fd5b50565b6000813590506106b481610695565b92915050565b6000602082840312156106d0576106cf6104e2565b5b60006106de848285016106a5565b91505092915050565b600080fd5b600080fd5b7f4e487b7100000000000000000000000000000000000000000000000000000000600052604160045260246000fd5b61072982610629565b810181811067ffffffffffffffff82111715610748576107476106f1565b5b80604052505050565b600061075b6104d8565b90506107678282610720565b919050565b600067ffffffffffffffff821115610787576107866106f1565b5b61079082610629565b9050602081019050919050565b82818337600083830152505050565b60006107bf6107ba8461076c565b610751565b9050828152602081018484840111156107db576107da6106ec565b5b6107e684828561079d565b509392505050565b600082601f830112610803576108026106e7565b5b81356108138482602086016107ac565b91505092915050565b600060208284031215610832576108316104e2565b5b600082013567ffffffffffffffff8111156108505761084f6104e7565b5b61085c848285016107ee565b91505092915050565b61086e8161050c565b82525050565b60006020820190506108896000830184610865565b92915050565b6000819050919050565b6108a28161088f565b82525050565b60006020820190506108bd6000830184610899565b92915050565b7f4e487b7100000000000000000000000000000000000000000000000000000000600052602160045260246000fd5b60048110610903576109026108c3565b5b50565b6000819050610914826108f2565b919050565b600061092482610906565b9050919050565b61093481610919565b82525050565b600060208201905061094f600083018461092b565b92915050565b7f4e487b7100000000000000000000000000000000000000000000000000000000600052602260045260246000fd5b6000600282049050600182168061099c57607f821691505b602082108114156109b0576109af610955565b5b5091905056fea26469706673582212209f6ea095132756eb098301c02d80c9f334b30018700aed26ac20051e1367344f64736f6c634300080a0033608060405234801561001057600080fd5b506040516106b53803806106b583398181016040528101906100329190610310565b8160009080519060200190610048929190610091565b5080600160006101000a81548173ffffffffffffffffffffffffffffffffffffffff021916908373ffffffffffffffffffffffffffffffffffffffff16021790555050506103cd565b82805461009d9061039b565b90600052602060002090601f0160209004810192826100bf5760008555610106565b82601f106100d857805160ff1916838001178555610106565b82800160010185558215610106579182015b828111156101055782518255916020019190600101906100ea565b5b5090506101139190610117565b5090565b5b80821115610130576000816000905550600101610118565b5090565b6000604051905090565b600080fd5b600080fd5b600080fd5b600080fd5b6000601f19601f8301169050919050565b7f4e487b7100000000000000000000000000000000000000000000000000000000600052604160045260246000fd5b61019b82610152565b810181811067ffffffffffffffff821117156101ba576101b9610163565b5b80604052505050565b60006101cd610134565b90506101d98282610192565b919050565b600067ffffffffffffffff8211156101f9576101f8610163565b5b61020282610152565b9050602081019050919050565b60005b8381101561022d578082015181840152602081019050610212565b8381111561023c576000848401525b50505050565b6000610255610250846101de565b6101c3565b9050828152602081018484840111156102715761027061014d565b5b61027c84828561020f565b509392505050565b600082601f83011261029957610298610148565b5b81516102a9848260208601610242565b91505092915050565b600073ffffffffffffffffffffffffffffffffffffffff82169050919050565b60006102dd826102b2565b9050919050565b6102ed816102d2565b81146102f857600080fd5b50565b60008151905061030a816102e4565b92915050565b600080604083850312156103275761032661013e565b5b600083015167ffffffffffffffff81111561034557610344610143565b5b61035185828601610284565b9250506020610362858286016102fb565b9150509250929050565b7f4e487b7100000000000000000000000000000000000000000000000000000000600052602260045260246000fd5b600060028204905060018216806103b357607f821691505b602082108114156103c7576103c661036c565b5b50919050565b6102d9806103dc6000396000f3fe608060405234801561001057600080fd5b50600436106100365760003560e01c80633aeaccf51461003b5780638052474d14610059575b600080fd5b610043610077565b604051610050919061016c565b60405180910390f35b61006161009d565b60405161006e9190610220565b60405180910390f35b600160009054906101000a900473ffffffffffffffffffffffffffffffffffffffff1681565b600080546100aa90610271565b80601f01602080910402602001604051908101604052809291908181526020018280546100d690610271565b80156101235780601f106100f857610100808354040283529160200191610123565b820191906000526020600020905b81548152906001019060200180831161010657829003601f168201915b505050505081565b600073ffffffffffffffffffffffffffffffffffffffff82169050919050565b60006101568261012b565b9050919050565b6101668161014b565b82525050565b6000602082019050610181600083018461015d565b92915050565b600081519050919050565b600082825260208201905092915050565b60005b838110156101c15780820151818401526020810190506101a6565b838111156101d0576000848401525b50505050565b6000601f19601f8301169050919050565b60006101f282610187565b6101fc8185610192565b935061020c8185602086016101a3565b610215816101d6565b840191505092915050565b6000602082019050818103600083015261023a81846101e7565b905092915050565b7f4e487b7100000000000000000000000000000000000000000000000000000000600052602260045260246000fd5b6000600282049050600182168061028957607f821691505b6020821081141561029d5761029c610242565b5b5091905056fea26469706673582212208d4c5c67976ef064de154ec53f36666aa8794a37d54a567e6c038bfa29e97d0064736f6c634300080a0033608060405234801561001057600080fd5b506040516106b53803806106b583398181016040528101906100329190610310565b8160009080519060200190610048929190610091565b5080600160006101000a81548173ffffffffffffffffffffffffffffffffffffffff021916908373ffffffffffffffffffffffffffffffffffffffff16021790555050506103cd565b82805461009d9061039b565b90600052602060002090601f0160209004810192826100bf5760008555610106565b82601f106100d857805160ff1916838001178555610106565b82800160010185558215610106579182015b828111156101055782518255916020019190600101906100ea565b5b5090506101139190610117565b5090565b5b80821115610130576000816000905550600101610118565b5090565b6000604051905090565b600080fd5b600080fd5b600080fd5b600080fd5b6000601f19601f8301169050919050565b7f4e487b7100000000000000000000000000000000000000000000000000000000600052604160045260246000fd5b61019b82610152565b810181811067ffffffffffffffff821117156101ba576101b9610163565b5b80604052505050565b60006101cd610134565b90506101d98282610192565b919050565b600067ffffffffffffffff8211156101f9576101f8610163565b5b61020282610152565b9050602081019050919050565b60005b8381101561022d578082015181840152602081019050610212565b8381111561023c576000848401525b50505050565b6000610255610250846101de565b6101c3565b9050828152602081018484840111156102715761027061014d565b5b61027c84828561020f565b509392505050565b600082601f83011261029957610298610148565b5b81516102a9848260208601610242565b91505092915050565b600073ffffffffffffffffffffffffffffffffffffffff82169050919050565b60006102dd826102b2565b9050919050565b6102ed816102d2565b81146102f857600080fd5b50565b60008151905061030a816102e4565b92915050565b600080604083850312156103275761032661013e565b5b600083015167ffffffffffffffff81111561034557610344610143565b5b61035185828601610284565b9250506020610362858286016102fb565b9150509250929050565b7f4e487b7100000000000000000000000000000000000000000000000000000000600052602260045260246000fd5b600060028204905060018216806103b357607f821691505b602082108114156103c7576103c661036c565b5b50919050565b6102d9806103dc6000396000f3fe608060405234801561001057600080fd5b50600436106100365760003560e01c80633aeaccf51461003b5780638052474d14610059575b600080fd5b610043610077565b604051610050919061016c565b60405180910390f35b61006161009d565b60405161006e9190610220565b60405180910390f35b600160009054906101000a900473ffffffffffffffffffffffffffffffffffffffff1681565b600080546100aa90610271565b80601f01602080910402602001604051908101604052809291908181526020018280546100d690610271565b80156101235780601f106100f857610100808354040283529160200191610123565b820191906000526020600020905b81548152906001019060200180831161010657829003601f168201915b505050505081565b600073ffffffffffffffffffffffffffffffffffffffff82169050919050565b60006101568261012b565b9050919050565b6101668161014b565b82525050565b6000602082019050610181600083018461015d565b92915050565b600081519050919050565b600082825260208201905092915050565b60005b838110156101c15780820151818401526020810190506101a6565b838111156101d0576000848401525b50505050565b6000601f19601f8301169050919050565b60006101f282610187565b6101fc8185610192565b935061020c8185602086016101a3565b610215816101d6565b840191505092915050565b6000602082019050818103600083015261023a81846101e7565b905092915050565b7f4e487b7100000000000000000000000000000000000000000000000000000000600052602260045260246000fd5b6000600282049050600182168061028957607f821691505b6020821081141561029d5761029c610242565b5b5091905056fea26469706673582212205855c726ecf6972ca344bc6f65b726d021b937c89263cb47e5922298ebef365f64736f6c634300080a0033a2646970667358221220b89e5a1ae6b32bef43e77e03680954a633b18cbfe042c6034eb0c7a38e7927c764736f6c634300080a0033",
  "immutableReferences": {},
  "source": "// SPDX-License-Identifier: UNLICENSED\npragma solidity ^0.8.10;\n\nimport \"./Asset.sol\";\nimport \"./Customer.sol\";\nimport \"./Vendor.sol\";\nimport \"./Warehouse.sol\";\n\ncontract AssetTracker {\n    //participants\n    mapping(address => Warehouse) public warehouses;\n    mapping(address => Customer) public customers;\n    mapping(address => Vendor) public vendors;\n\n    //asset\n    mapping(int256 => Asset) public assets;\n    int256 public assetId;\n\n    //Events\n    event AssetCreate(address account, int256 assetID, string customer);\n    event AssetTransfer(address from, address to, int256 assetID);\n\n    //create customer\n    function createCustomer(string memory name, address cAddress) public {\n        Customer customer = new Customer(name, cAddress);\n        customers[cAddress] = customer;\n    }\n\n    //create vendor\n    function createVendor(string memory name, address vAddress) public {\n        Vendor vendor = new Vendor(name, vAddress);\n        vendors[vAddress] = vendor;\n    }\n\n    //create vendor\n    function createWarehouse(string memory name, address wAddress) public {\n        Warehouse wh = new Warehouse(name, wAddress);\n        warehouses[wAddress] = wh;\n    }\n\n    //Create Assets\n    function createAsset(string memory assetName) public returns (int256) {\n        //Only customers can create an asset\n        if (msg.sender != customers[msg.sender].Address())\n            revert(\"Only a customer can create an asset\");\n        bytes memory stringTest = bytes(assetName); // Uses memory\n        if (stringTest.length == 0) revert(\"asset name must not be null\");\n        assetId = assetId + 1;\n        Asset asset = new Asset(assetId, assetName, msg.sender);\n        assets[assetId] = asset;\n\n        emit AssetCreate(msg.sender, assetId, customers[msg.sender].Name());\n        return assetId;\n    }\n\n    function getCurrentOwner(int256 assetID) public view returns (address) {\n        Asset asset = assets[assetID];\n        return asset.Owner();\n    }\n\n    // function getCustomerAdress(address adr) public view returns(address) {\n    //          Customer customer = customers[adr];\n    //          return customer.Address();\n    // }\n\n    function getCurrentState(int256 assetID)\n        public\n        view\n        returns (string memory state)\n    {\n        Asset asset = assets[assetID];\n        return asset.StateNames(uint256(asset.State()));\n    }\n\n    function getAsset(int256 assetID)\n        public\n        view\n        returns (\n            int256 id,\n            string memory name,\n            uint256 state,\n            address owner\n        )\n    {\n        Asset asset = assets[assetID];\n        return (\n            asset.AssetId(),\n            asset.Name(),\n            uint256(asset.State()),\n            asset.Owner()\n        );\n    }\n\n    function setAssetCurrentLocation(\n        int256 assetID,\n        string memory assetLocation\n    ) public {\n        //Transfer to Vemdor from Customer\n        Asset asset = assets[assetID];\n        asset.setAssetLocation(assetLocation);\n    }\n\n    function transferAsset(address to, int256 assetID) public {\n        //check owner\n        if (msg.sender != getCurrentOwner(assetID))\n            revert(\"Only an owner can transfer an asset\");\n\n        //Transfer to Vendor from Customer\n        Asset asset = assets[assetID];\n        if (\n            asset.State() == Asset.StateType.Created &&\n            to == vendors[to].Address()\n        ) {\n            asset.setOwner(to);\n            asset.setState(Asset.StateType.Vendor);\n        }\n        //Transfer to Warehouse from Vendor\n        else if (\n            asset.State() == Asset.StateType.Vendor &&\n            to == warehouses[to].Address()\n        ) {\n            asset.setOwner(to);\n            asset.setState(Asset.StateType.Warehouse);\n        }\n        //Transfer to Customer from Dealer\n        else if (\n            asset.State() == Asset.StateType.Warehouse &&\n            to == customers[to].Address()\n        ) {\n            asset.setOwner(to);\n            asset.setState(Asset.StateType.Shipped);\n        }\n\n        emit AssetTransfer(msg.sender, to, assetID);\n    }\n}\n",
  "sourcePath": "/Users/eetti/dev/personal/smu/contracts/AssetTracker.sol",
  "compiler": {
    "name": "solc",
    "version": "0.8.10+commit.fc410830.Emscripten.clang"
  },
  "schemaVersion": "3.4.3",
  "updatedAt": "2021-12-16T00:09:38.982Z",
  "devdoc": {
    "kind": "dev",
    "methods": {},
    "version": 1
  },
  "userdoc": {
    "kind": "user",
    "methods": {},
    "version": 1
  }
}