{
  "contractName": "Asset",
  "abi": [
    {
      "inputs": [
        {
          "internalType": "string",
          "name": "name",
          "type": "string"
        }
      ],
      "stateMutability": "nonpayable",
      "type": "constructor"
    },
    {
      "anonymous": false,
      "inputs": [
        {
          "indexed": false,
          "internalType": "string",
          "name": "name",
          "type": "string"
        },
        {
          "indexed": false,
          "internalType": "address",
          "name": "owner",
          "type": "address"
        }
      ],
      "name": "AssetCreated",
      "type": "event"
    },
    {
      "inputs": [],
      "name": "AssetLocation",
      "outputs": [
        {
          "internalType": "string",
          "name": "",
          "type": "string"
        }
      ],
      "stateMutability": "view",
      "type": "function"
    },
    {
      "inputs": [],
      "name": "Name",
      "outputs": [
        {
          "internalType": "string",
          "name": "",
          "type": "string"
        }
      ],
      "stateMutability": "view",
      "type": "function"
    },
    {
      "inputs": [],
      "name": "Owner",
      "outputs": [
        {
          "internalType": "address",
          "name": "",
          "type": "address"
        }
      ],
      "stateMutability": "view",
      "type": "function"
    },
    {
      "inputs": [],
      "name": "State",
      "outputs": [
        {
          "internalType": "enum Asset.StateType",
          "name": "",
          "type": "uint8"
        }
      ],
      "stateMutability": "view",
      "type": "function"
    },
    {
      "inputs": [
        {
          "internalType": "address",
          "name": "assetOwner",
          "type": "address"
        }
      ],
      "name": "setOwner",
      "outputs": [],
      "stateMutability": "nonpayable",
      "type": "function"
    },
    {
      "inputs": [
        {
          "internalType": "enum Asset.StateType",
          "name": "assetState",
          "type": "uint8"
        }
      ],
      "name": "setState",
      "outputs": [],
      "stateMutability": "nonpayable",
      "type": "function"
    },
    {
      "inputs": [
        {
          "internalType": "string",
          "name": "assetLocation",
          "type": "string"
        }
      ],
      "name": "setAssetLocation",
      "outputs": [],
      "stateMutability": "nonpayable",
      "type": "function"
    }
  ],
  "bytecode": "0x60806040523480156200001157600080fd5b5060405162000d6338038062000d6383398181016040528101906200003791906200034d565b336000806101000a81548173ffffffffffffffffffffffffffffffffffffffff021916908373ffffffffffffffffffffffffffffffffffffffff1602179055506001600260006101000a81548160ff02191690836006811115620000a0576200009f6200039e565b5b02179055508060019080519060200190620000bd92919062000100565b507f9384fea79f41506c532ad541214d7c107830ef5d7cf5c06a60edc467c67ed3d98133604051620000f19291906200046f565b60405180910390a15062000508565b8280546200010e90620004d2565b90600052602060002090601f0160209004810192826200013257600085556200017e565b82601f106200014d57805160ff19168380011785556200017e565b828001600101855582156200017e579182015b828111156200017d57825182559160200191906001019062000160565b5b5090506200018d919062000191565b5090565b5b80821115620001ac57600081600090555060010162000192565b5090565b6000604051905090565b600080fd5b600080fd5b600080fd5b600080fd5b6000601f19601f8301169050919050565b7f4e487b7100000000000000000000000000000000000000000000000000000000600052604160045260246000fd5b6200021982620001ce565b810181811067ffffffffffffffff821117156200023b576200023a620001df565b5b80604052505050565b600062000250620001b0565b90506200025e82826200020e565b919050565b600067ffffffffffffffff821115620002815762000280620001df565b5b6200028c82620001ce565b9050602081019050919050565b60005b83811015620002b95780820151818401526020810190506200029c565b83811115620002c9576000848401525b50505050565b6000620002e6620002e08462000263565b62000244565b905082815260208101848484011115620003055762000304620001c9565b5b6200031284828562000299565b509392505050565b600082601f830112620003325762000331620001c4565b5b815162000344848260208601620002cf565b91505092915050565b600060208284031215620003665762000365620001ba565b5b600082015167ffffffffffffffff811115620003875762000386620001bf565b5b62000395848285016200031a565b91505092915050565b7f4e487b7100000000000000000000000000000000000000000000000000000000600052602160045260246000fd5b600081519050919050565b600082825260208201905092915050565b6000620003f682620003cd565b620004028185620003d8565b93506200041481856020860162000299565b6200041f81620001ce565b840191505092915050565b600073ffffffffffffffffffffffffffffffffffffffff82169050919050565b600062000457826200042a565b9050919050565b62000469816200044a565b82525050565b600060408201905081810360008301526200048b8185620003e9565b90506200049c60208301846200045e565b9392505050565b7f4e487b7100000000000000000000000000000000000000000000000000000000600052602260045260246000fd5b60006002820490506001821680620004eb57607f821691505b60208210811415620005025762000501620004a3565b5b50919050565b61084b80620005186000396000f3fe608060405234801561001057600080fd5b506004361061007d5760003560e01c80638052474d1161005b5780638052474d146100d85780639b9ab33a146100f6578063b4a99a4e14610112578063f1b6dccd146101305761007d565b806313af40351461008257806356de96db1461009e57806364c5ba8e146100ba575b600080fd5b61009c60048036038101906100979190610440565b61014e565b005b6100b860048036038101906100b39190610492565b610191565b005b6100c26101be565b6040516100cf9190610558565b60405180910390f35b6100e061024c565b6040516100ed9190610558565b60405180910390f35b610110600480360381019061010b91906106af565b6102da565b005b61011a6102f4565b6040516101279190610707565b60405180910390f35b610138610318565b6040516101459190610799565b60405180910390f35b806000806101000a81548173ffffffffffffffffffffffffffffffffffffffff021916908373ffffffffffffffffffffffffffffffffffffffff16021790555050565b80600260006101000a81548160ff021916908360068111156101b6576101b5610722565b5b021790555050565b600380546101cb906107e3565b80601f01602080910402602001604051908101604052809291908181526020018280546101f7906107e3565b80156102445780601f1061021957610100808354040283529160200191610244565b820191906000526020600020905b81548152906001019060200180831161022757829003601f168201915b505050505081565b60018054610259906107e3565b80601f0160208091040260200160405190810160405280929190818152602001828054610285906107e3565b80156102d25780601f106102a7576101008083540402835291602001916102d2565b820191906000526020600020905b8154815290600101906020018083116102b557829003601f168201915b505050505081565b80600390805190602001906102f092919061032b565b5050565b60008054906101000a900473ffffffffffffffffffffffffffffffffffffffff1681565b600260009054906101000a900460ff1681565b828054610337906107e3565b90600052602060002090601f01602090048101928261035957600085556103a0565b82601f1061037257805160ff19168380011785556103a0565b828001600101855582156103a0579182015b8281111561039f578251825591602001919060010190610384565b5b5090506103ad91906103b1565b5090565b5b808211156103ca5760008160009055506001016103b2565b5090565b6000604051905090565b600080fd5b600080fd5b600073ffffffffffffffffffffffffffffffffffffffff82169050919050565b600061040d826103e2565b9050919050565b61041d81610402565b811461042857600080fd5b50565b60008135905061043a81610414565b92915050565b600060208284031215610456576104556103d8565b5b60006104648482850161042b565b91505092915050565b6007811061047a57600080fd5b50565b60008135905061048c8161046d565b92915050565b6000602082840312156104a8576104a76103d8565b5b60006104b68482850161047d565b91505092915050565b600081519050919050565b600082825260208201905092915050565b60005b838110156104f95780820151818401526020810190506104de565b83811115610508576000848401525b50505050565b6000601f19601f8301169050919050565b600061052a826104bf565b61053481856104ca565b93506105448185602086016104db565b61054d8161050e565b840191505092915050565b60006020820190508181036000830152610572818461051f565b905092915050565b600080fd5b600080fd5b7f4e487b7100000000000000000000000000000000000000000000000000000000600052604160045260246000fd5b6105bc8261050e565b810181811067ffffffffffffffff821117156105db576105da610584565b5b80604052505050565b60006105ee6103ce565b90506105fa82826105b3565b919050565b600067ffffffffffffffff82111561061a57610619610584565b5b6106238261050e565b9050602081019050919050565b82818337600083830152505050565b600061065261064d846105ff565b6105e4565b90508281526020810184848401111561066e5761066d61057f565b5b610679848285610630565b509392505050565b600082601f8301126106965761069561057a565b5b81356106a684826020860161063f565b91505092915050565b6000602082840312156106c5576106c46103d8565b5b600082013567ffffffffffffffff8111156106e3576106e26103dd565b5b6106ef84828501610681565b91505092915050565b61070181610402565b82525050565b600060208201905061071c60008301846106f8565b92915050565b7f4e487b7100000000000000000000000000000000000000000000000000000000600052602160045260246000fd5b6007811061076257610761610722565b5b50565b600081905061077382610751565b919050565b600061078382610765565b9050919050565b61079381610778565b82525050565b60006020820190506107ae600083018461078a565b92915050565b7f4e487b7100000000000000000000000000000000000000000000000000000000600052602260045260246000fd5b600060028204905060018216806107fb57607f821691505b6020821081141561080f5761080e6107b4565b5b5091905056fea2646970667358221220d443b8ebc0a71c44c780d66293694d8b21efb4d12ce6b6f54e509b3f12eea8c264736f6c634300080a0033",
  "immutableReferences": {},
  "source": "// SPDX-License-Identifier: UNLICENSED\npragma solidity ^0.8.10;\n\ncontract Asset {\n\n    enum StateType {\n        Active, //0\n        Created, //1\n        Inspection, //2\n        Inspected, //3\n        Shipped, //4\n        Accepted, //5\n        Terminated //6\n    }\n\n    address public Owner;\n    string public Name;\n    StateType public State;\n    string public AssetLocation;\n\n    event AssetCreated(string name, address owner);\n\n    constructor(string memory name) {\n        Owner = msg.sender;\n        State = StateType.Created;\n        Name = name;\n        emit AssetCreated(name, msg.sender);\n    }\n\n    function setOwner(address assetOwner) public {\n        Owner = assetOwner;\n    }\n    \n    function setState(StateType assetState) public {\n        State = assetState;\n    }\n\n    function setAssetLocation(string memory assetLocation) public {\n        AssetLocation = assetLocation;\n    }\n}",
  "sourcePath": "/Users/eetti/dev/personal/smu/contracts/Asset.sol",
  "compiler": {
    "name": "solc",
    "version": "0.8.10+commit.fc410830.Emscripten.clang"
  },
  "schemaVersion": "3.4.3",
  "updatedAt": "2021-12-14T19:29:25.453Z",
  "devdoc": {
    "kind": "dev",
    "methods": {},
    "version": 1
  },
  "userdoc": {
    "kind": "user",
    "methods": {},
    "version": 1
  }
}