{
  "contractName": "Asset",
  "abi": [
    {
      "inputs": [
        {
          "internalType": "int256",
          "name": "assetId",
          "type": "int256"
        },
        {
          "internalType": "string",
          "name": "name",
          "type": "string"
        },
        {
          "internalType": "address",
          "name": "owner",
          "type": "address"
        }
      ],
      "stateMutability": "nonpayable",
      "type": "constructor"
    },
    {
      "anonymous": false,
      "inputs": [
        {
          "indexed": false,
          "internalType": "string",
          "name": "name",
          "type": "string"
        },
        {
          "indexed": false,
          "internalType": "address",
          "name": "owner",
          "type": "address"
        }
      ],
      "name": "AssetCreated",
      "type": "event"
    },
    {
      "inputs": [],
      "name": "AssetId",
      "outputs": [
        {
          "internalType": "int256",
          "name": "",
          "type": "int256"
        }
      ],
      "stateMutability": "view",
      "type": "function"
    },
    {
      "inputs": [],
      "name": "AssetLocation",
      "outputs": [
        {
          "internalType": "string",
          "name": "",
          "type": "string"
        }
      ],
      "stateMutability": "view",
      "type": "function"
    },
    {
      "inputs": [],
      "name": "Name",
      "outputs": [
        {
          "internalType": "string",
          "name": "",
          "type": "string"
        }
      ],
      "stateMutability": "view",
      "type": "function"
    },
    {
      "inputs": [],
      "name": "Owner",
      "outputs": [
        {
          "internalType": "address",
          "name": "",
          "type": "address"
        }
      ],
      "stateMutability": "view",
      "type": "function"
    },
    {
      "inputs": [],
      "name": "State",
      "outputs": [
        {
          "internalType": "enum Asset.StateType",
          "name": "",
          "type": "uint8"
        }
      ],
      "stateMutability": "view",
      "type": "function"
    },
    {
      "inputs": [
        {
          "internalType": "uint256",
          "name": "",
          "type": "uint256"
        }
      ],
      "name": "StateNames",
      "outputs": [
        {
          "internalType": "string",
          "name": "",
          "type": "string"
        }
      ],
      "stateMutability": "view",
      "type": "function"
    },
    {
      "inputs": [
        {
          "internalType": "address",
          "name": "assetOwner",
          "type": "address"
        }
      ],
      "name": "setOwner",
      "outputs": [],
      "stateMutability": "nonpayable",
      "type": "function"
    },
    {
      "inputs": [
        {
          "internalType": "enum Asset.StateType",
          "name": "assetState",
          "type": "uint8"
        }
      ],
      "name": "setState",
      "outputs": [],
      "stateMutability": "nonpayable",
      "type": "function"
    },
    {
      "inputs": [
        {
          "internalType": "string",
          "name": "assetLocation",
          "type": "string"
        }
      ],
      "name": "setAssetLocation",
      "outputs": [],
      "stateMutability": "nonpayable",
      "type": "function"
    }
  ],
  "bytecode": "0x60806040523480156200001157600080fd5b506040516200112338038062001123833981810160405281019062000037919062000576565b82600481905550806000806101000a81548173ffffffffffffffffffffffffffffffffffffffff021916908373ffffffffffffffffffffffffffffffffffffffff1602179055506000600260006101000a81548160ff02191690836003811115620000a757620000a6620005f1565b5b02179055508160019080519060200190620000c492919062000289565b506040518060400160405280600781526020017f4372656174656400000000000000000000000000000000000000000000000000815250600560006001815260200190815260200160002090805190602001906200012492919062000289565b506040518060400160405280600681526020017f56656e646f720000000000000000000000000000000000000000000000000000815250600560006003815260200190815260200160002090805190602001906200018492919062000289565b506040518060400160405280600981526020017f57617265686f757365000000000000000000000000000000000000000000000081525060056000600481526020019081526020016000209080519060200190620001e492919062000289565b506040518060400160405280600781526020017f5368697070656400000000000000000000000000000000000000000000000000815250600560006005815260200190815260200160002090805190602001906200024492919062000289565b507f9384fea79f41506c532ad541214d7c107830ef5d7cf5c06a60edc467c67ed3d98282604051620002789291906200068e565b60405180910390a150505062000727565b8280546200029790620006f1565b90600052602060002090601f016020900481019282620002bb576000855562000307565b82601f10620002d657805160ff191683800117855562000307565b8280016001018555821562000307579182015b8281111562000306578251825591602001919060010190620002e9565b5b5090506200031691906200031a565b5090565b5b80821115620003355760008160009055506001016200031b565b5090565b6000604051905090565b600080fd5b600080fd5b6000819050919050565b62000362816200034d565b81146200036e57600080fd5b50565b600081519050620003828162000357565b92915050565b600080fd5b600080fd5b6000601f19601f8301169050919050565b7f4e487b7100000000000000000000000000000000000000000000000000000000600052604160045260246000fd5b620003dd8262000392565b810181811067ffffffffffffffff82111715620003ff57620003fe620003a3565b5b80604052505050565b60006200041462000339565b9050620004228282620003d2565b919050565b600067ffffffffffffffff821115620004455762000444620003a3565b5b620004508262000392565b9050602081019050919050565b60005b838110156200047d57808201518184015260208101905062000460565b838111156200048d576000848401525b50505050565b6000620004aa620004a48462000427565b62000408565b905082815260208101848484011115620004c957620004c86200038d565b5b620004d68482856200045d565b509392505050565b600082601f830112620004f657620004f562000388565b5b81516200050884826020860162000493565b91505092915050565b600073ffffffffffffffffffffffffffffffffffffffff82169050919050565b60006200053e8262000511565b9050919050565b620005508162000531565b81146200055c57600080fd5b50565b600081519050620005708162000545565b92915050565b60008060006060848603121562000592576200059162000343565b5b6000620005a28682870162000371565b935050602084015167ffffffffffffffff811115620005c657620005c562000348565b5b620005d486828701620004de565b9250506040620005e7868287016200055f565b9150509250925092565b7f4e487b7100000000000000000000000000000000000000000000000000000000600052602160045260246000fd5b600081519050919050565b600082825260208201905092915050565b6000620006498262000620565b6200065581856200062b565b9350620006678185602086016200045d565b620006728162000392565b840191505092915050565b620006888162000531565b82525050565b60006040820190508181036000830152620006aa81856200063c565b9050620006bb60208301846200067d565b9392505050565b7f4e487b7100000000000000000000000000000000000000000000000000000000600052602260045260246000fd5b600060028204905060018216806200070a57607f821691505b60208210811415620007215762000720620006c2565b5b50919050565b6109ec80620007376000396000f3fe608060405234801561001057600080fd5b50600436106100935760003560e01c80638052474d116100665780638052474d1461011e5780639b9ab33a1461013c578063b4a99a4e14610158578063cf7550bd14610176578063f1b6dccd1461019457610093565b806313af4035146100985780634fcebeb4146100b457806356de96db146100e457806364c5ba8e14610100575b600080fd5b6100b260048036038101906100ad919061054a565b6101b2565b005b6100ce60048036038101906100c991906105ad565b6101f5565b6040516100db9190610673565b60405180910390f35b6100fe60048036038101906100f991906106ba565b610295565b005b6101086102c2565b6040516101159190610673565b60405180910390f35b610126610350565b6040516101339190610673565b60405180910390f35b6101566004803603810190610151919061081c565b6103de565b005b6101606103f8565b60405161016d9190610874565b60405180910390f35b61017e61041c565b60405161018b91906108a8565b60405180910390f35b61019c610422565b6040516101a9919061093a565b60405180910390f35b806000806101000a81548173ffffffffffffffffffffffffffffffffffffffff021916908373ffffffffffffffffffffffffffffffffffffffff16021790555050565b6005602052806000526040600020600091509050805461021490610984565b80601f016020809104026020016040519081016040528092919081815260200182805461024090610984565b801561028d5780601f106102625761010080835404028352916020019161028d565b820191906000526020600020905b81548152906001019060200180831161027057829003601f168201915b505050505081565b80600260006101000a81548160ff021916908360038111156102ba576102b96108c3565b5b021790555050565b600380546102cf90610984565b80601f01602080910402602001604051908101604052809291908181526020018280546102fb90610984565b80156103485780601f1061031d57610100808354040283529160200191610348565b820191906000526020600020905b81548152906001019060200180831161032b57829003601f168201915b505050505081565b6001805461035d90610984565b80601f016020809104026020016040519081016040528092919081815260200182805461038990610984565b80156103d65780601f106103ab576101008083540402835291602001916103d6565b820191906000526020600020905b8154815290600101906020018083116103b957829003601f168201915b505050505081565b80600390805190602001906103f4929190610435565b5050565b60008054906101000a900473ffffffffffffffffffffffffffffffffffffffff1681565b60045481565b600260009054906101000a900460ff1681565b82805461044190610984565b90600052602060002090601f01602090048101928261046357600085556104aa565b82601f1061047c57805160ff19168380011785556104aa565b828001600101855582156104aa579182015b828111156104a957825182559160200191906001019061048e565b5b5090506104b791906104bb565b5090565b5b808211156104d45760008160009055506001016104bc565b5090565b6000604051905090565b600080fd5b600080fd5b600073ffffffffffffffffffffffffffffffffffffffff82169050919050565b6000610517826104ec565b9050919050565b6105278161050c565b811461053257600080fd5b50565b6000813590506105448161051e565b92915050565b6000602082840312156105605761055f6104e2565b5b600061056e84828501610535565b91505092915050565b6000819050919050565b61058a81610577565b811461059557600080fd5b50565b6000813590506105a781610581565b92915050565b6000602082840312156105c3576105c26104e2565b5b60006105d184828501610598565b91505092915050565b600081519050919050565b600082825260208201905092915050565b60005b838110156106145780820151818401526020810190506105f9565b83811115610623576000848401525b50505050565b6000601f19601f8301169050919050565b6000610645826105da565b61064f81856105e5565b935061065f8185602086016105f6565b61066881610629565b840191505092915050565b6000602082019050818103600083015261068d818461063a565b905092915050565b600481106106a257600080fd5b50565b6000813590506106b481610695565b92915050565b6000602082840312156106d0576106cf6104e2565b5b60006106de848285016106a5565b91505092915050565b600080fd5b600080fd5b7f4e487b7100000000000000000000000000000000000000000000000000000000600052604160045260246000fd5b61072982610629565b810181811067ffffffffffffffff82111715610748576107476106f1565b5b80604052505050565b600061075b6104d8565b90506107678282610720565b919050565b600067ffffffffffffffff821115610787576107866106f1565b5b61079082610629565b9050602081019050919050565b82818337600083830152505050565b60006107bf6107ba8461076c565b610751565b9050828152602081018484840111156107db576107da6106ec565b5b6107e684828561079d565b509392505050565b600082601f830112610803576108026106e7565b5b81356108138482602086016107ac565b91505092915050565b600060208284031215610832576108316104e2565b5b600082013567ffffffffffffffff8111156108505761084f6104e7565b5b61085c848285016107ee565b91505092915050565b61086e8161050c565b82525050565b60006020820190506108896000830184610865565b92915050565b6000819050919050565b6108a28161088f565b82525050565b60006020820190506108bd6000830184610899565b92915050565b7f4e487b7100000000000000000000000000000000000000000000000000000000600052602160045260246000fd5b60048110610903576109026108c3565b5b50565b6000819050610914826108f2565b919050565b600061092482610906565b9050919050565b61093481610919565b82525050565b600060208201905061094f600083018461092b565b92915050565b7f4e487b7100000000000000000000000000000000000000000000000000000000600052602260045260246000fd5b6000600282049050600182168061099c57607f821691505b602082108114156109b0576109af610955565b5b5091905056fea26469706673582212209f6ea095132756eb098301c02d80c9f334b30018700aed26ac20051e1367344f64736f6c634300080a0033",
  "immutableReferences": {},
  "source": "// SPDX-License-Identifier: UNLICENSED\npragma solidity ^0.8.10;\n\ncontract Asset {\n    enum StateType {\n        Created, //1\n        Vendor, //3\n        Warehouse, //4\n        Shipped //5\n    }\n\n    address public Owner;\n    string public Name;\n    StateType public State;\n    string public AssetLocation;\n    int256 public AssetId;\n\n    mapping(uint256 => string) public StateNames;\n\n    event AssetCreated(string name, address owner);\n\n    constructor(\n        int256 assetId,\n        string memory name,\n        address owner\n    ) {\n        AssetId = assetId;\n        Owner = owner;\n        State = StateType.Created;\n        Name = name;\n        StateNames[1] = \"Created\";\n        StateNames[3] = \"Vendor\";\n        StateNames[4] = \"Warehouse\";\n        StateNames[5] = \"Shipped\";\n        emit AssetCreated(name, owner);\n    }\n\n    function setOwner(address assetOwner) public {\n        Owner = assetOwner;\n    }\n\n    function setState(StateType assetState) public {\n        State = assetState;\n    }\n\n    function setAssetLocation(string memory assetLocation) public {\n        AssetLocation = assetLocation;\n    }\n}\n",
  "sourcePath": "/Users/eetti/dev/personal/smu/contracts/Asset.sol",
  "compiler": {
    "name": "solc",
    "version": "0.8.10+commit.fc410830.Emscripten.clang"
  },
  "schemaVersion": "3.4.3",
  "updatedAt": "2021-12-16T00:09:38.952Z",
  "devdoc": {
    "kind": "dev",
    "methods": {},
    "version": 1
  },
  "userdoc": {
    "kind": "user",
    "methods": {},
    "version": 1
  }
}