{
  "contractName": "Asset",
  "abi": [
    {
      "inputs": [
        {
          "internalType": "int256",
          "name": "assetId",
          "type": "int256"
        },
        {
          "internalType": "string",
          "name": "name",
          "type": "string"
        },
        {
          "internalType": "address",
          "name": "owner",
          "type": "address"
        }
      ],
      "stateMutability": "nonpayable",
      "type": "constructor"
    },
    {
      "anonymous": false,
      "inputs": [
        {
          "indexed": false,
          "internalType": "string",
          "name": "name",
          "type": "string"
        },
        {
          "indexed": false,
          "internalType": "address",
          "name": "owner",
          "type": "address"
        }
      ],
      "name": "AssetCreated",
      "type": "event"
    },
    {
      "inputs": [],
      "name": "AssetId",
      "outputs": [
        {
          "internalType": "int256",
          "name": "",
          "type": "int256"
        }
      ],
      "stateMutability": "view",
      "type": "function",
      "constant": true
    },
    {
      "inputs": [],
      "name": "AssetLocation",
      "outputs": [
        {
          "internalType": "string",
          "name": "",
          "type": "string"
        }
      ],
      "stateMutability": "view",
      "type": "function",
      "constant": true
    },
    {
      "inputs": [],
      "name": "Name",
      "outputs": [
        {
          "internalType": "string",
          "name": "",
          "type": "string"
        }
      ],
      "stateMutability": "view",
      "type": "function",
      "constant": true
    },
    {
      "inputs": [],
      "name": "Owner",
      "outputs": [
        {
          "internalType": "address",
          "name": "",
          "type": "address"
        }
      ],
      "stateMutability": "view",
      "type": "function",
      "constant": true
    },
    {
      "inputs": [],
      "name": "State",
      "outputs": [
        {
          "internalType": "enum Asset.StateType",
          "name": "",
          "type": "uint8"
        }
      ],
      "stateMutability": "view",
      "type": "function",
      "constant": true
    },
    {
      "inputs": [
        {
          "internalType": "address",
          "name": "assetOwner",
          "type": "address"
        }
      ],
      "name": "setOwner",
      "outputs": [],
      "stateMutability": "nonpayable",
      "type": "function"
    },
    {
      "inputs": [
        {
          "internalType": "enum Asset.StateType",
          "name": "assetState",
          "type": "uint8"
        }
      ],
      "name": "setState",
      "outputs": [],
      "stateMutability": "nonpayable",
      "type": "function"
    },
    {
      "inputs": [
        {
          "internalType": "string",
          "name": "assetLocation",
          "type": "string"
        }
      ],
      "name": "setAssetLocation",
      "outputs": [],
      "stateMutability": "nonpayable",
      "type": "function"
    }
  ],
  "bytecode": "0x60806040523480156200001157600080fd5b5060405162000e6538038062000e658339818101604052810190620000379190620003f6565b82600481905550806000806101000a81548173ffffffffffffffffffffffffffffffffffffffff021916908373ffffffffffffffffffffffffffffffffffffffff1602179055506001600260006101000a81548160ff02191690836007811115620000a757620000a662000471565b5b02179055508160019080519060200190620000c492919062000109565b507f9384fea79f41506c532ad541214d7c107830ef5d7cf5c06a60edc467c67ed3d98282604051620000f89291906200050e565b60405180910390a1505050620005a7565b828054620001179062000571565b90600052602060002090601f0160209004810192826200013b576000855562000187565b82601f106200015657805160ff191683800117855562000187565b8280016001018555821562000187579182015b828111156200018657825182559160200191906001019062000169565b5b5090506200019691906200019a565b5090565b5b80821115620001b55760008160009055506001016200019b565b5090565b6000604051905090565b600080fd5b600080fd5b6000819050919050565b620001e281620001cd565b8114620001ee57600080fd5b50565b6000815190506200020281620001d7565b92915050565b600080fd5b600080fd5b6000601f19601f8301169050919050565b7f4e487b7100000000000000000000000000000000000000000000000000000000600052604160045260246000fd5b6200025d8262000212565b810181811067ffffffffffffffff821117156200027f576200027e62000223565b5b80604052505050565b600062000294620001b9565b9050620002a2828262000252565b919050565b600067ffffffffffffffff821115620002c557620002c462000223565b5b620002d08262000212565b9050602081019050919050565b60005b83811015620002fd578082015181840152602081019050620002e0565b838111156200030d576000848401525b50505050565b60006200032a6200032484620002a7565b62000288565b9050828152602081018484840111156200034957620003486200020d565b5b62000356848285620002dd565b509392505050565b600082601f83011262000376576200037562000208565b5b81516200038884826020860162000313565b91505092915050565b600073ffffffffffffffffffffffffffffffffffffffff82169050919050565b6000620003be8262000391565b9050919050565b620003d081620003b1565b8114620003dc57600080fd5b50565b600081519050620003f081620003c5565b92915050565b600080600060608486031215620004125762000411620001c3565b5b60006200042286828701620001f1565b935050602084015167ffffffffffffffff811115620004465762000445620001c8565b5b62000454868287016200035e565b92505060406200046786828701620003df565b9150509250925092565b7f4e487b7100000000000000000000000000000000000000000000000000000000600052602160045260246000fd5b600081519050919050565b600082825260208201905092915050565b6000620004c982620004a0565b620004d58185620004ab565b9350620004e7818560208601620002dd565b620004f28162000212565b840191505092915050565b6200050881620003b1565b82525050565b600060408201905081810360008301526200052a8185620004bc565b90506200053b6020830184620004fd565b9392505050565b7f4e487b7100000000000000000000000000000000000000000000000000000000600052602260045260246000fd5b600060028204905060018216806200058a57607f821691505b60208210811415620005a157620005a062000542565b5b50919050565b6108ae80620005b76000396000f3fe608060405234801561001057600080fd5b50600436106100885760003560e01c80639b9ab33a1161005b5780639b9ab33a14610101578063b4a99a4e1461011d578063cf7550bd1461013b578063f1b6dccd1461015957610088565b806313af40351461008d57806356de96db146100a957806364c5ba8e146100c55780638052474d146100e3575b600080fd5b6100a760048036038101906100a2919061046f565b610177565b005b6100c360048036038101906100be91906104c1565b6101ba565b005b6100cd6101e7565b6040516100da9190610587565b60405180910390f35b6100eb610275565b6040516100f89190610587565b60405180910390f35b61011b600480360381019061011691906106de565b610303565b005b61012561031d565b6040516101329190610736565b60405180910390f35b610143610341565b604051610150919061076a565b60405180910390f35b610161610347565b60405161016e91906107fc565b60405180910390f35b806000806101000a81548173ffffffffffffffffffffffffffffffffffffffff021916908373ffffffffffffffffffffffffffffffffffffffff16021790555050565b80600260006101000a81548160ff021916908360078111156101df576101de610785565b5b021790555050565b600380546101f490610846565b80601f016020809104026020016040519081016040528092919081815260200182805461022090610846565b801561026d5780601f106102425761010080835404028352916020019161026d565b820191906000526020600020905b81548152906001019060200180831161025057829003601f168201915b505050505081565b6001805461028290610846565b80601f01602080910402602001604051908101604052809291908181526020018280546102ae90610846565b80156102fb5780601f106102d0576101008083540402835291602001916102fb565b820191906000526020600020905b8154815290600101906020018083116102de57829003601f168201915b505050505081565b806003908051906020019061031992919061035a565b5050565b60008054906101000a900473ffffffffffffffffffffffffffffffffffffffff1681565b60045481565b600260009054906101000a900460ff1681565b82805461036690610846565b90600052602060002090601f01602090048101928261038857600085556103cf565b82601f106103a157805160ff19168380011785556103cf565b828001600101855582156103cf579182015b828111156103ce5782518255916020019190600101906103b3565b5b5090506103dc91906103e0565b5090565b5b808211156103f95760008160009055506001016103e1565b5090565b6000604051905090565b600080fd5b600080fd5b600073ffffffffffffffffffffffffffffffffffffffff82169050919050565b600061043c82610411565b9050919050565b61044c81610431565b811461045757600080fd5b50565b60008135905061046981610443565b92915050565b60006020828403121561048557610484610407565b5b60006104938482850161045a565b91505092915050565b600881106104a957600080fd5b50565b6000813590506104bb8161049c565b92915050565b6000602082840312156104d7576104d6610407565b5b60006104e5848285016104ac565b91505092915050565b600081519050919050565b600082825260208201905092915050565b60005b8381101561052857808201518184015260208101905061050d565b83811115610537576000848401525b50505050565b6000601f19601f8301169050919050565b6000610559826104ee565b61056381856104f9565b935061057381856020860161050a565b61057c8161053d565b840191505092915050565b600060208201905081810360008301526105a1818461054e565b905092915050565b600080fd5b600080fd5b7f4e487b7100000000000000000000000000000000000000000000000000000000600052604160045260246000fd5b6105eb8261053d565b810181811067ffffffffffffffff8211171561060a576106096105b3565b5b80604052505050565b600061061d6103fd565b905061062982826105e2565b919050565b600067ffffffffffffffff821115610649576106486105b3565b5b6106528261053d565b9050602081019050919050565b82818337600083830152505050565b600061068161067c8461062e565b610613565b90508281526020810184848401111561069d5761069c6105ae565b5b6106a884828561065f565b509392505050565b600082601f8301126106c5576106c46105a9565b5b81356106d584826020860161066e565b91505092915050565b6000602082840312156106f4576106f3610407565b5b600082013567ffffffffffffffff8111156107125761071161040c565b5b61071e848285016106b0565b91505092915050565b61073081610431565b82525050565b600060208201905061074b6000830184610727565b92915050565b6000819050919050565b61076481610751565b82525050565b600060208201905061077f600083018461075b565b92915050565b7f4e487b7100000000000000000000000000000000000000000000000000000000600052602160045260246000fd5b600881106107c5576107c4610785565b5b50565b60008190506107d6826107b4565b919050565b60006107e6826107c8565b9050919050565b6107f6816107db565b82525050565b600060208201905061081160008301846107ed565b92915050565b7f4e487b7100000000000000000000000000000000000000000000000000000000600052602260045260246000fd5b6000600282049050600182168061085e57607f821691505b6020821081141561087257610871610817565b5b5091905056fea264697066735822122055b8ebded7c38cdfd703ec3c335680021fa0e41495c78ecbaa431de1efb5fcec64736f6c634300080a0033",
  "immutableReferences": {},
  "source": "// SPDX-License-Identifier: UNLICENSED\npragma solidity ^0.8.10;\n\ncontract Asset {\n\n    enum StateType {\n        Active, //0\n        Created, //1\n        Inspection, //2\n        Vendor, //3\n        Warehouse, //4\n        Shipped, //5\n        Accepted, //6\n        Terminated //7\n    }\n\n    address public Owner;\n    string public Name;\n    StateType public State;\n    string public AssetLocation;\n    int public AssetId;\n\n    event AssetCreated(string name, address owner);\n\n    constructor(int assetId, string memory name, address owner) {\n        AssetId = assetId;\n        Owner = owner;\n        State = StateType.Created;\n        Name = name;\n        emit AssetCreated(name, owner);\n    }\n\n    function setOwner(address assetOwner) public {\n        Owner = assetOwner;\n    }\n    \n    function setState(StateType assetState) public {\n        State = assetState;\n    }\n\n    function setAssetLocation(string memory assetLocation) public {\n        AssetLocation = assetLocation;\n    }\n}",
  "sourcePath": "/Users/eetti/dev/personal/smu/contracts/Asset.sol",
  "compiler": {
    "name": "solc",
    "version": "0.8.10+commit.fc410830.Emscripten.clang"
  },
  "schemaVersion": "3.4.3",
  "updatedAt": "2021-12-15T05:20:53.503Z",
  "networkType": "ethereum",
  "devdoc": {
    "kind": "dev",
    "methods": {},
    "version": 1
  },
  "userdoc": {
    "kind": "user",
    "methods": {},
    "version": 1
  }
}