{
  "contractName": "Vendor",
  "abi": [
    {
      "inputs": [
        {
          "internalType": "string",
          "name": "name",
          "type": "string"
        },
        {
          "internalType": "address",
          "name": "vendorAddress",
          "type": "address"
        }
      ],
      "stateMutability": "nonpayable",
      "type": "constructor"
    },
    {
      "inputs": [],
      "name": "Address",
      "outputs": [
        {
          "internalType": "address",
          "name": "",
          "type": "address"
        }
      ],
      "stateMutability": "view",
      "type": "function",
      "constant": true
    },
    {
      "inputs": [],
      "name": "Name",
      "outputs": [
        {
          "internalType": "string",
          "name": "",
          "type": "string"
        }
      ],
      "stateMutability": "view",
      "type": "function",
      "constant": true
    }
  ],
  "bytecode": "0x608060405234801561001057600080fd5b506040516106b53803806106b583398181016040528101906100329190610310565b8160009080519060200190610048929190610091565b5080600160006101000a81548173ffffffffffffffffffffffffffffffffffffffff021916908373ffffffffffffffffffffffffffffffffffffffff16021790555050506103cd565b82805461009d9061039b565b90600052602060002090601f0160209004810192826100bf5760008555610106565b82601f106100d857805160ff1916838001178555610106565b82800160010185558215610106579182015b828111156101055782518255916020019190600101906100ea565b5b5090506101139190610117565b5090565b5b80821115610130576000816000905550600101610118565b5090565b6000604051905090565b600080fd5b600080fd5b600080fd5b600080fd5b6000601f19601f8301169050919050565b7f4e487b7100000000000000000000000000000000000000000000000000000000600052604160045260246000fd5b61019b82610152565b810181811067ffffffffffffffff821117156101ba576101b9610163565b5b80604052505050565b60006101cd610134565b90506101d98282610192565b919050565b600067ffffffffffffffff8211156101f9576101f8610163565b5b61020282610152565b9050602081019050919050565b60005b8381101561022d578082015181840152602081019050610212565b8381111561023c576000848401525b50505050565b6000610255610250846101de565b6101c3565b9050828152602081018484840111156102715761027061014d565b5b61027c84828561020f565b509392505050565b600082601f83011261029957610298610148565b5b81516102a9848260208601610242565b91505092915050565b600073ffffffffffffffffffffffffffffffffffffffff82169050919050565b60006102dd826102b2565b9050919050565b6102ed816102d2565b81146102f857600080fd5b50565b60008151905061030a816102e4565b92915050565b600080604083850312156103275761032661013e565b5b600083015167ffffffffffffffff81111561034557610344610143565b5b61035185828601610284565b9250506020610362858286016102fb565b9150509250929050565b7f4e487b7100000000000000000000000000000000000000000000000000000000600052602260045260246000fd5b600060028204905060018216806103b357607f821691505b602082108114156103c7576103c661036c565b5b50919050565b6102d9806103dc6000396000f3fe608060405234801561001057600080fd5b50600436106100365760003560e01c80633aeaccf51461003b5780638052474d14610059575b600080fd5b610043610077565b604051610050919061016c565b60405180910390f35b61006161009d565b60405161006e9190610220565b60405180910390f35b600160009054906101000a900473ffffffffffffffffffffffffffffffffffffffff1681565b600080546100aa90610271565b80601f01602080910402602001604051908101604052809291908181526020018280546100d690610271565b80156101235780601f106100f857610100808354040283529160200191610123565b820191906000526020600020905b81548152906001019060200180831161010657829003601f168201915b505050505081565b600073ffffffffffffffffffffffffffffffffffffffff82169050919050565b60006101568261012b565b9050919050565b6101668161014b565b82525050565b6000602082019050610181600083018461015d565b92915050565b600081519050919050565b600082825260208201905092915050565b60005b838110156101c15780820151818401526020810190506101a6565b838111156101d0576000848401525b50505050565b6000601f19601f8301169050919050565b60006101f282610187565b6101fc8185610192565b935061020c8185602086016101a3565b610215816101d6565b840191505092915050565b6000602082019050818103600083015261023a81846101e7565b905092915050565b7f4e487b7100000000000000000000000000000000000000000000000000000000600052602260045260246000fd5b6000600282049050600182168061028957607f821691505b6020821081141561029d5761029c610242565b5b5091905056fea26469706673582212204d5050abfb21f7840991cba4abc6bf0cce1778acf4aae72db70b97157f0b055864736f6c634300080a0033",
  "immutableReferences": {},
  "source": "// SPDX-License-Identifier: UNLICENSED\npragma solidity ^0.8.10;\n\ncontract Vendor {\n    string public Name;\n    address public Address;\n\n    constructor(string memory name, address vendorAddress) {\n        Name = name;\n        Address = vendorAddress;\n    }\n}",
  "sourcePath": "/Users/eetti/dev/personal/smu/contracts/Vendor.sol",
  "compiler": {
    "name": "solc",
    "version": "0.8.10+commit.fc410830.Emscripten.clang"
  },
  "schemaVersion": "3.4.3",
  "updatedAt": "2021-12-15T05:20:54.657Z",
  "networkType": "ethereum",
  "devdoc": {
    "kind": "dev",
    "methods": {},
    "version": 1
  },
  "userdoc": {
    "kind": "user",
    "methods": {},
    "version": 1
  }
}